:020000040800F2
:10000000D8600020C9520008B9510008BB5100084F
:10001000BD510008BF510008C15100080000000098
:10002000000000000000000000000000212B00087C
:10003000C351000800000000C92A0008A3290008D5
:10004000ED520008F1520008F5520008F95200087C
:10005000FD52000801530008055300080953000829
:100060000D530008115300081553000819530008D8
:100070001D53000821530008255300082953000888
:100080002D53000831530008355300083953000838
:100090003D530008415300084553000849530008E8
:1000A0004D53000851530008555300085953000898
:1000B0005D530008C55100086153000865530008EE
:1000C000695300086D530008715300087553000808
:1000D000795300087D5300088153000885530008B8
:1000E000895300088D530008915300089553000868
:1000F000995300089D530008A1530008A553000818
:10010000A9530008CB510008AD530008B1530008B3
:10011000B5530008B9530008BD530008C153000887
:10012000C5530008C9530008CD530008D151000839
:10013000D1530008D5530008D9530008DD530008F7
:10014000E1530008E5530008E9530008ED530008A7
:10015000F1530008D7510008F5530008F95300087F
:10016000FD53000801540008055400080954000814
:100170000D54000811540008155400080000000038
:10018000195400081D5400084178007807E0C17830
:10019000827842EA01214278007842EA012140EA6D
:1001A000012070470170090A417070470170090A07
:1001B0004170090A8170090AC17070472AB111F8AB
:1001C000013B00F8013B521EF9D17047521E00F866
:1001D000011BFBD1704700B9704780B5006901F081
:1001E0008BF900B1012002BD00281CBF0C290B298E
:1001F00004D00F291CBF006901F088B97047F0B521
:1002000000220023DFF8584A04EB03152E685EB184
:100210000768BE4202BF6E688768BE4202BFAD6813
:100220004669B54201D103E001225B1C022BEBD3EE
:10023000022B04D162B902290AD01220F0BD29B9DB
:1002400004EB03108089B0F5807F01D11020F0BD50
:100250000020F0BDF0B503688768DFF8044A00228B
:1002600004EB02152E689E4204BF6E68BE4202BFB8
:10027000AD684669B54202D0521C022AF0D3022A68
:1002800010D125680022002D1EBF01222569002DF6
:100290000DD104EB02152B6083686B604069A86088
:1002A0000020A88104EB0210838929B10BB1002042
:1002B000F0BD4FF4807100E0591C8181501CF0BDED
:1002C00010B5401E022814D20001DFF894190A1854
:1002D0009389B3F5807F01D01C0002D10023938164
:1002E00003E05B1E93819BB20BB900220A500020F1
:1002F00010BD022010BD10B50021DFF864290B01EC
:10030000D458844204BF0024D450491C0229F6D397
:1003100010BDF8B505460024E878A0B16E6B00F07A
:1003200014F808B101240EE0E870A86A296A301AAE
:10033000884208D2AF7804E0286A861900F005F8F0
:100340007F1E022FF8D22046F2BD68780123324684
:1003500005F1380101F0FCB870B504460D46606B3C
:100360000026854210D02046FFF7D3FF06000BD1B0
:10037000607801232A4604F1380101F0E3F810B156
:100380004FF0FF3501266563304670BD38B5044631
:10039000FFF7BFFF05003CD12078032804BF207978
:1003A00001282FD1A289002104F13800FFF70EFFA8
:1003B0004AF6552104F23620FFF7F4FEDFF8F81B69
:1003C00004F13800FFF7F2FE4FF40770DFF8EC1B82
:1003D0002044FFF7EBFEA1694FF408702044FFF7BB
:1003E000E5FE61694FF409702044FFF7DFFE606AA3
:1003F000421C62630123607804F1380101F0A8F81F
:100400000020207100226078002101F0AFF800B1D7
:100410000125284632BDC269891E921E91422FBF16
:1004200000204289006B02FB010070472DE9F0417A
:100430000D460468022D52D3E06985424FD22078E0
:1004400001284FF0FF3604D049D3032836D025D3F6
:1004500045E0A189A06A05EB550700F04BF800289C
:100460003ED100F0CEF807F1010890F83870A06A8C
:10047000B8FBF1F100F040F8002831D1A089B8FBB9
:10048000F0F100FB1180204490F8380047EA002783
:10049000E80754BFC7F30B063E0921E0A189A06A13
:1004A0004908B5FBF1F100F027F8C8B9A189680047
:1004B00000F019F8FFF768FE064611E0A189A06A6E
:1004C0008908B5FBF1F100F017F848B9A189A80037
:1004D00000F009F8FFF75BFE20F0704600E001260F
:1004E0003046BDE8F081B0FBF1F201FB1200204480
:1004F00038307047B7FBF1F1091820462CE72DE999
:10050000F0410E46022E044615464FF0020875D300
:10051000E069864272D22078012804D06ED3032885
:1005200049D033D36AE0A189A06A06EB5607FFF7EA
:10053000E1FF0028804661D100F063F87F1C38306D
:10054000F10743BF017801F00F0141EA0511294687
:1005500001700120E070A189A06AFFF7CBFF00289D
:1005600080464BD1A089B7FBF0F100FB117020440D
:100570003830F10748BF290906D401782A0A01F06A
:10058000F00102F00F021143017035E0A189A06A69
:100590004908B6FBF1F1FFF7AFFF804670BBA289B7
:1005A0007000B0FBF2F302FB13002044A9B2383014
:1005B000FFF7F8FD20E0A189A06A8908B6FBF1F1F8
:1005C000FFF79AFF8046C8B9A089B600B6FBF0F1E4
:1005D00000FB116020443830FFF7D9FDA28925F0D7
:1005E000704100F070400143B6FBF2F002FB106076
:1005F00020443830FFF7DAFD0120E0704046BDE8C6
:10060000F081A1893846B0FBF1F201FB12002044D1
:100610007047F8B504460F462568022F114611D3DE
:10062000E86987420ED231B14FF0FF322846FFF71A
:1006300066FF010023D1394600F0D9FD06001DD028
:10064000012E01D10220F2BD16F1010F01D10120CE
:10065000F2BD002239462846FFF751FF01000ED1B6
:10066000E869A969821E914205D2491CA9612979CC
:1006700041F00101297137468742DCD30020F2BDE9
:100680002DE9F04180460D00D8F8004006D1676999
:1006900017B1E06987420ED301270CE0FFF7C6FED1
:1006A000022838BF01203DD310F1010F3AD0E16993
:1006B000884237D32F463E46E069761C864202D3F5
:1006C0000226022F26D331464046FFF7AFFED0B9AF
:1006D0004FF0FF3231462046FFF711FF28B92DB108
:1006E000324629462046FFF70AFFA8B9E169A0690A
:1006F0006661891E814224BF401EA061207940F0BE
:10070000010020710DE0012818BF10F1010F09D080
:10071000BE42D1D1002005E001280CBF4FF0FF36CA
:1007200001263046BDE8F08102689389C06A52898B
:10073000B1FBF3F1001DB1FBF2F101E0891A0830C1
:1007400002680AB9002070479142F7D24068401809
:1007500070472DE9F04104460D462668B5F5001FA7
:100760002FD215F01F0F2CD1A76865611FB9307803
:10077000032801DBF76A2FB931896809884220D242
:10078000F06A1AE07089B18901FB00F801E0A5EB7D
:100790000805454539460DD300F029FD074617F1F8
:1007A000010F01D1012019E0022F0AD3F06987421D
:1007B000EDD306E03046FFF72EFEE061A761E06969
:1007C00008B902200AE0B189B5FBF1F21018E06126
:1007D00001FB12503044383020620020BDE8F08127
:1007E0002DE9F04104460F466069256800F12008B4
:1007F000E06928B3B8F5001F22D2A989B8FBF1F24D
:1008000001FB1281002955D1401CA169E06129B981
:1008100029894FEA581088424CD30FE06889401E5E
:10082000024247D100F0E3FC0646022E14D316F133
:10083000010F34D0E869864236D31FB90020E06149
:10084000042042E0A1692046FFF71AFF060008BF16
:1008500007203AD0012E01D1022036E016F1010F17
:100860001DD02846FFF755FDC8B9AA89002105F11A
:100870003800FFF7ABFC31462846FFF7CCFD0027D8
:1008800002E0686B7F1C401C68636889874208D25D
:100890000120E8702846FFF73CFD0028F1D0012038
:1008A00013E0686BC01B6863A66131462846FFF7FA
:1008B000B2FDE061C4F81480A889B8FBF0F100FB38
:1008C00011802844383020620020BDE8F08170B5E6
:1008D00004460D4605F11A00FFF756FC064620783F
:1008E000032805D105F11400FFF74EFC46EA004647
:1008F000304670BD70B504460D461646B1B205F1DE
:100900001A00FFF74FFC2078032805D1310C05F1C0
:100910001400BDE8704045E470BDF8B505460021FF
:100920002F68FFF716FF060016D10024E969384644
:10093000FFF712FD06000FD1286A0078E5281CBFDA
:100940000028002402D1641C012C08D00121284673
:10095000FFF746FF0600E9D0042E08BF0726300047
:1009600012D1E9693846FFF7F7FC06000CD1286A76
:1009700020220021FFF72AFC286A0B2205F124011E
:10098000FFF71CFC0120F8703046F2BD2DE9F8435A
:100990000D4680462E6808F124070B222021384698
:1009A000FFF714FC0020002108220FF2A8030FF229
:1009B000B40C03E00B2A3BD008200B2216F801E010
:1009C000491CBEF1210F30DBBEF12F0F18BFBEF165
:1009D0005C0F06D1725C2F2A14BF5C2A491CF9D027
:1009E00023E0BEF12E0FE5D0904221D2BEF1800F60
:1009F000A4BFE6441EF880EC994601E009F1010924
:100A000099F80040002C18BF7445F7D184B9AEF1B5
:100A100061041A2C3CBFAEF120045FFA84FE08EB9F
:100A20000004401C84F824E0C8E73144296008B978
:100A300006200BE03878E52804BF05203870BEF1A9
:100A4000210FB4BF04200020F8720020BDE8F2831B
:100A500000000000222A2B2C3A3B3C3D3E3F5B5DD0
:100A60007C7F00004355454141414143454545494F
:100A7000494941414592924F4F4F5555594F554F16
:100A80009C4F9E9F41494F55A5A5A6A7A8A9AAABD3
:100A9000ACADAEAFB0B1B2B3B4414141B8B9BABB7D
:100AA000BCBDBEBFC0C1C2C3C4C54141C8C9CACB19
:100AB000CCCDCECFD1D145454549494949D9DADBDD
:100AC000DCDD49DF4FE14F4F4F4FE6E8E855555524
:100AD0005959EEEFF0F1F2F3F4F5F6F7F8F9FAFB05
:100AE000FCFDFEFFF2B50446256802E00098401CBC
:100AF0000090009800782F2818BF5C28F6D00020BE
:100B0000A06000980078202812D2802084F82F005E
:100B100000F0DAFCF2BD6069A989B0FBF1F201FBDB
:100B20001200284400F138012846FFF7D0FEA060EB
:100B300069462046FFF72AFF010038D1266800F0F9
:100B4000C3FC010023D1E1693046FFF705FC010039
:100B50001DD1216A0A780AB9042018E0CA7A02F085
:100B60003F02A271CA7A12070DD404F124020B23AA
:100B700011F8017B12F801CB5B1EA7EB0C0701D02B
:100B8000002FF5D01FB100F013F80100DBD094F86E
:100B90002F10020001F0040104D0042808BF00292E
:100BA00005D103E019B9A079C006B4D40520F2BD7F
:100BB0000021204614E610B502684FF0FF31BAB1AB
:100BC000134600E05B1C1C78212C01D33A2CF9D190
:100BD0003A2C0CD112F8014B303C0A2C08D29A4224
:100BE00008BF002C04D15A1C0021026000E0002143
:100BF000084610BD38B504460020E07004F1340505
:100C00004FF0FF302860FFF778FC08B1042032BDB8
:100C100004F23620FFF7B8FA4AF65521884201D08F
:100C2000032032BD2879E92804D0EB2804BFA87935
:100C3000902813D104F16E00FFF7A9FA20F07F404D
:100C4000DFF89015884207D004F18A00FFF79FFA79
:100C5000DFF88415884201D1002032BD022032BD68
:100C6000E89F00202DE9F0430D4685B00021296062
:100C70001446FFF7A0FF070048BF0B2006D4DFF89B
:100C80005C8508EB870046680EB90C2034E13046DD
:100C9000FFF7A1FA08B90F202EE12E6004F0FE0440
:100CA000307848B1707800F035FCC10704D4002CCE
:100CB00001D040070DD41EE10020307077707078AD
:100CC00000F031FCC10748BF032003D41CB140072A
:100CD00001D50A2010E1707806F10C02022100F023
:100CE00045FCB0BBB089A0F50071B1F5606F30D89C
:100CF000411E08422DD100213046FFF77BFF00271F
:100D00000446022C23D1002406EB04104FF4FB719F
:100D10000844017919B10830FFF739FA00E00020E2
:100D20004DF82400641C042CEED3B9465DF82970FC
:100D300027B139463046FFF75DFF00E00320044647
:100D4000022C04DB09F10109B9F1040FEED3042CE4
:100D500001D10120D0E0022C80F28A8006F143000C
:100D6000FFF712FAB189884212D106F14E00FFF75F
:100D70000BFA050004D106F15C00FFF708FA0546FE
:100D800006F145003562C178B170012918BF02290A
:100D90006ED14D4300787081010069D0411E084238
:100DA00066D106F14900FFF7EFF9B18930814909B1
:100DB00090FBF1F201FB1200002859D106F14B0023
:100DC000FFF7E2F9040004D106F15800FFF7DFF95C
:100DD000044606F14600FFF7D7F9002848D0B3894A
:100DE00031895B092A1891FBF3F39A1894423FD397
:100DF000A31A7489B3FBF4F3002B39D003244FF604
:100E0000F67C634538BF022440F6F67C634538BF64
:100E10000124C019B0629B1CD019032CF3617762C6
:100E200030630FD106F16200FFF7AEF9002804BF6E
:100E3000308900281CD106F16400FFF7A8F9F16998
:100E400089000CE0A1B1B06AF1692818022C0FBF2B
:100E5000490001EB410201F0010101EB5201F06296
:100E6000B089421E5118B1FBF0F0316A814201D2C3
:100E70000D2041E04FF0FF30B06170618020032C05
:100E800030712ED106F16800FFF77EF9012828D1D4
:100E9000791C3046FFF760FA18BB307106F2362035
:100EA000FFF772F94AF6552188421AD106F1380047
:100EB000FFF76DF94049884213D14FF40770304471
:100EC000FFF765F93D4988420BD14FF40870304473
:100ED000FFF75DF9B0614FF409703044FFF757F93F
:100EE00070613470B8F80000401CA8F80000F08071
:100EF0003046FFF700FA002005B0BDE8F08338B5B2
:100F000005001CBF286800280C460AD0017841B1B2
:100F1000C188AA88914204D1407800F0FBFAC0074A
:100F200003D500202060092032BD28682060286891
:100F3000FFF751F900280CBF0F20002032BDF3B598
:100F400081B0144600916846FFF735FE050001D5D3
:100F50000B20FEBDA14800EB8506776847B13846F7
:100F6000FFF7C9F9386900F0C2FA78B1002038708B
:100F7000019808B9706011E001990020087001988B
:100F800000F11001E8B200F0A3FA08B90220FEBD9A
:100F900001987060019808B1012C01D00020FEBDBD
:100FA000002201A902A8FFF75DFE04460198214630
:100FB000FFF71AF92046FEBD52526141727241613B
:100FC0002DE9F24104008DB008BF092000F0FE8039
:100FD00002F03F06324669460DA8FFF743FE0500C2
:100FE0001DD100980D99019001A8FFF77BFD050028
:100FF0000DD19DF83300000648BF062507D416F032
:10100000FE0118BF012101A8FFF7F9F805461C20D1
:10101000064200F0A980280000F09C80042D40F0DA
:10102000D0806F48016800291EBF00690028122582
:1010300003D101A8FFF771FC0546280046F0080619
:1010400038D130073CD500F0ABFA0746099839464D
:101050000E30FFF7ABF8099839461630FFF7A6F8BF
:1010600009992020C872DDF8248000984146FFF7D6
:101070002EFC0746009800224146FFF73BFC0998EA
:1010800000211C30FFF792F800990120C8709FB131
:101090000098D0F834800022394601A8FFF7B9FA49
:1010A000050007D100984146FFF756F9009905461B
:1010B000781E486128004CD1300748BF46F04006F2
:1010C0000098406B606216F0FE010998A06218BF9C
:1010D000012101A8FFF7BEF80028206138D0099F40
:1010E00000983946FFF7F3FBA06007F11C00FFF7FB
:1010F0004EF8E0604FF480520020E062002100983A
:1011000020600098C088A08026750020607520624D
:10111000A06104F13000FFF759F8B00653D5E66836
:10112000002E50D0A661009800994089898901FB62
:1011300000F7A068B74225D3E06100998989B6FB22
:10114000F1F201FB126100293DD000F0B5F958BB66
:10115000022536E09DF80A001121084210D17007DF
:101160007FF56FAF08252CE02800A3D19DF80A0079
:10117000C10648BF042524D4B1079DD5C0079BD51F
:1011800007251EE000F032F8022801D2022509E00E
:1011900010F1010F03D101254FF0FF3002E0F61BE3
:1011A0002900C7D0E0610CE000998989B6FBF1F114
:1011B0000A18226201230098407800F013F810B159
:1011C00001250020206000F05CF928460EB0BDE843
:1011D000F081000046415400464154331CA00020D9
:1011E000E89F002004F1300100F0ACB90146204630
:1011F000FFF71CB92DE9F04704461E4682B00020D7
:1012000030608846154600F0BBF80746002804BF4A
:10121000677D002F05D000983946FEF7E5FF384678
:10122000A8E0207D800703D400F0ADF80720A1E0FE
:10123000A0692918814223D24FF0FF310D1A1FE017
:10124000C4F820A000F0A3F82F46954288BF1746A7
:10125000C01A20443A4641463030FEF7AFFF207DA9
:1012600040F080002075A069E16838188142A061D3
:1012700038BF0146E160B844306838183060ED1B73
:10128000002D70D000F0A0F8DCD100984089401EFD
:1012900010EA020918D111B9A06850B906E0E06A55
:1012A00018B12046FFF740FA03E0E1692046FFF756
:1012B000E7F9002857D0012813D010F1010F4ED0C4
:1012C000A168E06101B9A060207D000605D500F0AD
:1012D0006DF8002843D100F0CBF8E16900F0EDF89B
:1012E00018B900F06BF8022044E009EB000A0098FE
:1012F0008089B5FBF0F70FB30098408907EB09012F
:10130000884238BFA0EB0907009840783B4600F0C0
:1013100049F820BB206AA0EB0A00B8420AD2009923
:101320008A89504308EB000104F13000FEF746FFC4
:1013300000F09EF800988089474394E7206A504562
:101340000BD0A069E1688842BFF47AAF009840787A
:1013500001235246FFF746FF00283FF471AF00F02B
:101360003CF8012006E0207D40F04000207500F0B0
:1013700003F80020BDE8F68700210098FEF734BF8F
:1013800069462046BBE500980721FEF72DBF00996E
:10139000A0698989B0FBF1F201FB02F30A1A9A18DD
:1013A000704733465246414600F0D2B80098226A50
:1013B0004078012304F1300100F0CAB802206075C2
:1013C00002210098FEF710BF0098A1698089B1FB47
:1013D000F0F200FB12100028704701206075012117
:1013E0000098FEF701BF70B582B000F069F8050003
:1013F0003AD1207D410637D500060AD5FFF7D6FF42
:1014000028B100980121FEF7EFFE012076BD00F023
:101410002FF800F0C5F80646616A0098FEF79CFFB9
:10142000050021D1A56AE87A40F02000E87229463B
:10143000A2682068FFF75EFAE16805F11C00FEF77C
:10144000B5FE314605F11600FEF7B0FE002105F1AC
:101450001200FEF7A7FE0099012000F00EF80546E5
:10146000207D00F0BF00207500F00BF8284676BD07
:10147000207D00F07F0020757047C8700098FEF74F
:1014800085BF29460098FEF7AFBE38B50446FFF782
:10149000AAFF05000ED1FFF773FF05000AD12069EE
:1014A000FEF70EFF050004BF002020600098002119
:1014B000FEF79AFE284632BD01460098FEF7ABBF04
:1014C00004466946FFF71BBD00212046FFF741B9DE
:1014D00010B50FF23C00006882B00C46009001216C
:1014E000684600F0A5F8206000B1012016BD80B567
:1014F00000F002F9012002BD10B54FF47A7100F03E
:10150000AAF8002400B90124204610BD00F0D2B88A
:101510000000000001461B4A501802EB8101496897
:10152000007A49680847174A01460020535C43B9CE
:1015300001205054501802EB81014968007A096873
:101540000847704738B500F009F8A468A04732BDD5
:1015500038B500F003F8E468A04732BD0446094DF1
:10156000281905EB84046468007A704710B50346B7
:10157000044CE01804EB83035B68007A1B69BDE848
:101580001040184708A0002010B5034C0348211D47
:1015900000F048F9207010BD14A00020B4520008DB
:1015A000002070470021842818BFC11C08467047DE
:1015B000EFF3058000B10120C0B2704780B500F0A4
:1015C0000EFA002002BD80B500F0F2FB01280CBF2E
:1015D0000020012002BD80B5FFF7EAFF00281CBFF4
:1015E000BDE8014000F082BABDE8014000F07ABADF
:1015F0003EB504460D46B4F90800FFF7D3FF02A933
:10160000019100902B4622692168606892B200F037
:101610000DF9012814BF002002983EBD80B500B925
:10162000012000F0BFF9002002BD012000F01EBD26
:1016300010B501290DD103220021012000F0EDFC9D
:10164000040004D000230022002100F023FD2046E6
:1016500010BD002010BD38B50446002000900CB924
:10166000802032BD002511F1010F08BF4FF0FF357A
:1016700000F01CF848B100F00EF8012809D10098DC
:1016800008B100F06EF8002032BD00F009F8012822
:10169000F9D0FF2032BD6A460021204600F0CDBEC1
:1016A00000232A460021204600F01CBE01D001B1D3
:1016B0000D467DE738B500F01BF860B1694620465D
:1016C00000F0CCFD012801D0FF2032BD009838B1D8
:1016D00000F047F804E000F005F8012818BFFF25E6
:1016E000284632BD002300220021204600F0D2BC53
:1016F0000025044600955BE710B500F008F808B136
:10170000822010BD204600F0E1FE002010BD0446FE
:101710004EE741680068002200F07FBC32B582B01D
:10172000044600201546009005B90125FFF740FF4B
:1017300068B100236A4602A9204600F044FD012852
:101740000DD1009808B100F00CF800203EBD002338
:101750002A4602A9204600F09DFC0128F5D0FF2072
:101760003EBD04494FF080500860BFF34F8FBFF378
:101770006F8F704704ED00E07FB504460D460020F2
:10178000029501900DB9802026E0002612F1010F8C
:10179000039008BF4FF0FF3600F023F870B103AAA2
:1017A00001A9284600F049FE01280CBF10200020A6
:1017B0000090039888B1FFF7D4FF0EE00023324673
:1017C00001A9284600F08EFD012808BF102003D093
:1017D000002E0CBF00204020009068460EC80EC4AA
:1017E0007FBD01D002B11646E2E6000030B50E4CD6
:1017F000657A03460120A5B9657A00206055607AB4
:1018000004EB80004360607A20440272607A421CDC
:101810006272303008703A2048702F2088700020A3
:10182000C87030BD0022E1E708A000202DE9F04398
:101830000446154685B088469946A80000F0F0FE9B
:1018400006001AD0542000F0EBFE070012D03E63D1
:101850000020039002974B460D9801902A460C9861
:1018600000904146204600F00DF8384600F046F85A
:10187000012004E0304600F059FF4FF0FF3005B082
:10188000BDE8F0832DE9F8430A9C8046206B00EB0D
:101890008200001FC708FF00994607F007000A5C96
:1018A000231883F834200A5C12B1401C1028F6D3A8
:1018B000002084F8430004F14405089E072E28BF49
:1018C0000626E6622E606860201D00F090FF04F19D
:1018D000180000F08CFFC6F10700A061246164626B
:1018E0000020A86028734A464146384600F0BAFFF7
:1018F0002060099800B10460BDE8F1832DE9F04152
:10190000044601F023F8DFF81056DFF81086E86C83
:10191000401CE8641426A86A28BBAC62E86C012865
:1019200027D1002706FB07F0404400F053FF7F1C3F
:10193000072FF7D305F1740000F04CFF05F188077D
:10194000384600F047FF284600F044FF05F1140038
:1019500000F040FF05F1380000F03CFF05F1740095
:10196000E8622F6305E0A86D18B900F033F828BFCE
:10197000AC62A86E401CA8660121686DE26A9140C5
:1019800008436865211DE06A7043404400F032FF5F
:1019900000F0F5FFA86D18B1A86AE16A00F0AFFA8F
:1019A000BDE8F08110B504000DD0DFF8DC05006F54
:1019B00000F0FEF800F03EF80021204600F0B0FAFA
:1019C00000F03EF808B900F083FA10BD502080F313
:1019D00011887047E06AA96AC96A884270471CB5D5
:1019E000DFF8A4450FF2AC5104F19C0001900023F4
:1019F0000020009080220FF23530FFF717FF5021B2
:101A000001280FD181F3118800F067FA4FF0FF3001
:101A1000E0660120A06500202065BDE8134000F0CD
:101A200049BF13BD10F1010FFBD181F3118800F004
:101A300054FAFEE7DFF85005016F491C0167704753
:101A400070B500F029F90026002400F041F800F0FC
:101A50007DFF286F401E2867286F002837D1E86C6B
:101A6000E0B934E0E868C66806F1180000F0E7FE67
:101A7000301D00F0E4FE686DF26A00F007F9F26ACA
:101A8000DFF808055A43311D104400F0B3FEF06A38
:101A9000A96AC96A884224BF0120286628680028EC
:101AA000E0D10EB100F076F9EE6D3EB100F025F810
:101AB00008B101202866761EF8D1EC65286E30B199
:101AC000DFF8CC144FF08050012400F005FA23E138
:101AD00038B9502080F31188BFF34F8FBFF36F8F59
:101AE000FEE77047DFF8A004006D704780B500F096
:101AF0006BFFDFF89404006D02BD2DE9F84300F0A0
:101B0000CBF8002400284AD1286D10F10109C5F84E
:101B100050900CD1E86A006800F04AF8E86A296B36
:101B2000E9622863686E401C686600F033F9E86E6D
:101B3000DFF858841427814528D31AE0301D00F0BF
:101B40007EFEB06A18B106F1180000F078FE686DEC
:101B5000F26A0121914008436865311DF06A7843BB
:101B6000404400F047FEF06AA96AC96A884228BF6B
:101B70000124E86A006810B94FF0FF3005E0E86A18
:101B8000C068C66870688145D8D2E866A86AC06A2D
:101B9000784358F80000022804D3012402E0E86DDD
:101BA000401CE865286E00B101242046BDE8F283A0
:101BB00038B1502080F31188BFF34F8FBFF36F8F80
:101BC000FEE77047DFF85003016F11B10121016694
:101BD000704701661422416DB1FA81F1C1F11F0114
:101BE0005143DFF8A82353583BB9502080F31188A4
:101BF000BFF34F8FBFF36F8FFEE7114401F108036E
:101C00004A6852684A609A4204BF52684A6049680A
:101C1000C9688162704710B50C46FFF759FFDFF8BD
:101C2000F812896A183100F0F1FD2046BDE8104035
:101C3000FFE7012174E138B5C068C46824B9FFF733
:101C4000C5FE00F04AF9FEE704F1180000F0F7FDC8
:101C500000F022F860B900F045F9686DE26A00F022
:101C600015F8E26ADFF824035A43211D104402E00C
:101C700004F11801284600F0BDFDA86AE16AC06AB7
:101C800088423ABF01202866002032BD01219140E0
:101C90000843686514237047DFF8EC52286F7047DB
:101CA00038B9502080F31188BFF34F8FBFF36F8F87
:101CB000FEE7DFF8D4124A6E0260096D416070479A
:101CC00070B504460D46502024B980F3118800F009
:101CD00004F9FEE725B980F3118800F0FEF8FEE76D
:101CE00000F034FEDFF83002016D2A6812F1010FB6
:101CF0000FD06368406E2668B04201D099420AD284
:101D0000C81A904207D2501A181828602046FFF7C8
:101D1000C7FF002400E0012400F031FE204670BD22
:101D2000DFF86412012008667047000070B5DFF824
:101D3000EC41DFF854521AE0FFF77CFE6869461E5A
:101D4000B641FFF77DFEF60F8EB900F0FFFD286A61
:101D5000C668301D00F073FDE86C401EE864686BD7
:101D6000401E686300F00BFE304600F009F8686B17
:101D70000028E1D120680228F9D300F0A9F8F6E79D
:101D800010B50446206B00F0D1FC2046BDE81040A1
:101D900000F0CCBCDFF8F001C16A096811B94FF05E
:101DA000FF3103E0C16AC968C9684968C166704704
:101DB000DFF8D401816D09B901207047006F002858
:101DC0000CBF0220002070472DE9F041040038D0FC
:101DD000DFF84451FFF7FEFD33D2A069002804D498
:101DE000A86AC06AC0F10700A0611427E16ADFF8A1
:101DF0009C6160697943314488421FD100F072F8D8
:101E0000002801BFE06A7843305800284FF00108ED
:101E100005D1686DE16A08FA01F188436865A86A2E
:101E2000C06AE06208FA00F2696D1143696578439F
:101E3000211D3044BDE8F04100F0DCBCA86AC06A56
:101E4000E062BDE8F0812DE9F04104460020002C5D
:101E50003CD0314DAA6A5021944204D081F31188BC
:101E600000F03BF8FEE7A26C22B981F3118800F084
:101E700034F8FEE7636C511EE26AA1649A4225D0F1
:101E800021BB00F02FF801261427DFF8008100287D
:101E900001BFE06A784358F80000002805D1686D5A
:101EA000E16A06FA01F188436865606CE062C0F19E
:101EB0000700A061E06A696D06FA00F211436965E6
:101EC0007843211D404400F095FC0120BDE8F081DD
:101ED000DFF8BC104FF080500860BFF34F8FBFF3A6
:101EE0006F8F7047201D00F0AABCDFF89C00816A4C
:101EF00019B1816A8A6C521C8A64806A7047C06A10
:101F0000884207D222494FF080500860BFF34F8FBC
:101F1000BFF36F8F70470000F09C0020209E0020D0
:101F2000F8B5194C256D0646A06A0F46001D00F055
:101F300086FC40B9A06A616DC06A012202FA00F015
:101F400021EA0000606516F1010F08D13FB1A06AD7
:101F5000011D04F13800BDE8F44000F04BBCA06A5C
:101F600076194660AE42A06A05D2011D206BBDE81D
:101F7000F44000F04BBC011DE06A00F047FCE06E4D
:101F8000864238BFE666F1BDF09C0020209E00200E
:101F900004ED00E049444C450000000038B5040061
:101FA0000D4604D100F08EFA00F087FAFEE700F04B
:101FB000CDFC201D826BC36B21685A431144016024
:101FC000002141632168826BC36B4160521E21680E
:101FD0005A43114481604FF0FF3204F144010A700A
:101FE0004A7075B9C068A0B104F11000FFF723FE74
:101FF00078B1DFF824164FF08050086000F05DFAE9
:1020000007E004F1100000F0E5FB04F1240000F00B
:10201000E1FB00F0B4FC012032BDF8B504000D4630
:10202000164604D100F04EFA00F047FAFEE7002D04
:102030000EBF482005FB04F0483000F0F1FA07001D
:1020400007D00097334607F148022946204600F0A2
:1020500002F83846F2BD82B0029B01B91A461A60F6
:10206000D86319641846012102B097E710B50246FB
:1020700000210120FFF7D1FF040009D0002060609B
:102080002060E060002300220021204600F002F8DA
:10209000204610BD2DE9F74F804600245025B8F1A9
:1020A000000F8B461E4602D100F005FAFEE7BBF199
:1020B000000F08F1240701D1F86960B9022E02D19E
:1020C000B86901280AD1FFF773FE78B9029868B1A0
:1020D00000F0F1F9FEE700F0EEF9FEE700F0EBF9B1
:1020E000FEE7404600F048FAFFF7AAFC00F02EFC9D
:1020F0007869B969DFF8209588424FF0805A01D39A
:10210000022E14D132465946404600F0EEF93968A5
:1021100021B13846FFF78FFD08B904E018B1C9F8BE
:1021200000A000F0CAF900F02AFC012049E0029862
:1021300010B900F024FC43E01CB96846FFF7B0FD7D
:10214000012400F01CFCFFF775FC00F0FFFB08F118
:10215000440090F9001011F1010F04BF002101703B
:1021600090F9011011F1010F04BF0021417000F03E
:1021700006FC02A96846FFF7A3FDE0B900F0E6FB04
:102180007869B96988420CBF0125002500F0F7FB8A
:10219000002DA6D0029908F11000FFF73CFD404643
:1021A00000F0EAF9FFF74CFC00289FD1C9F800A025
:1021B00000F083F99AE7404600F0DEF9FFF740FCB3
:1021C0000020BDE8FE8F2DE9F04780465025B8F18C
:1021D000000F894616461F4602D100F06CF9FEE753
:1021E000B9F1000F08F1240401D1E06930BB022FDE
:1021F00002D1A069012824D100F0E6FBEFF3118A97
:1022000000F059F96069A169884201D3022F20D1F9
:1022100098F945503A464946404600F066F915F1AE
:10222000010F11D1206890B12046FFF704FD00286E
:1022300018BF002E0BD00120306008E000F03BF901
:10224000FEE700F038F9FEE7681C88F84500012039
:1022500000E000208AF31188BDE8F0872DE9F04105
:1022600004460D46502724B987F3118800F025F95C
:10227000FEE7261DF06B20B187F3118800F01DF9F1
:10228000FEE7206808B93068E8B900F09DFBEFF37D
:10229000118887F3118800F010F9706BB16B8842D8
:1022A0001BD294F94510401C11F1010F70630FD13E
:1022B000306A80B100F0BDF8002818BF002D0AD0A8
:1022C0000120286007E087F3118800F0F6F8FEE7A8
:1022D000481C84F84500012000E0002088F31188A4
:1022E000BDE8F0812DE9F74F04468846994600275E
:1022F000502624B986F3118800F0DFF8FEE7251D8B
:10230000B8F1000F01D1E86B48B9FFF751FD80B972
:10231000029870B186F3118800F0CFF8FEE786F3DB
:10232000118800F0CAF8FEE7204600F025F9FFF713
:1023300087FB00F00BFB6E6BDFF8DCA24FF0805BDD
:1023400026B3AF684146204600F003F9B9F1000F0B
:102350000ED1701E6863206810B9FFF7C6FD2860B3
:10236000E86878B104F11000FFF765FC30B909E0C6
:10237000AF60286A30B100F05CF818B1CAF800B05C
:1023800000F09BF800F0FBFA012050E0029810B931
:1023900000F0F5FA4AE01FB96846FFF781FC012713
:1023A00000F0EDFAFFF746FB00F0D0FA04F144002C
:1023B00090F9001011F1010F04BF0021017090F994
:1023C000011011F1010F04BF0021417000F0D7FA94
:1023D00002A96846FFF774FC002820461DD100F0D2
:1023E000FEF80028A0D0206830B900F0AFFA2868C5
:1023F000FFF7EAFC00F0C3FA029904F12400FFF7AA
:102400000AFC204600F0B8F8FFF71AFB002890D12C
:10241000CAF800B000F051F88BE700F0ADF8FFF714
:102420000FFB204600F0DBF8002882D00020BDE83A
:10243000FE8F04F12400FFF7FEBB2DE9F0470446B0
:1024400089461646502514B900F035F8FEE7B9F173
:10245000000F04F1100701D1386B60B900F0B4FA35
:10246000EFF3118800F027F8BD6A3DB9002088F32A
:102470001188BDE8F08700F01EF8FEE794F944A04B
:102480004946204600F065F8681E1AF1010FB8624F
:102490000BD1386868B13846FFF7CDFB002818BF6C
:1024A000002E06D00120306003E00AF1010084F81C
:1024B00044000120DBE785F31188BFF34F8FBFF3A2
:1024C0006F8F7047502080F31188704710B504005B
:1024D00004D1FFF7F7FFFFF7F0FFFEE700F08AF8FF
:1024E0002046BDE8104000F021B9F8B50446174673
:1024F000A56B226C002642B9206830BB6068FFF7EC
:10250000A2FC0646002060601FE067B9A06800F0EA
:102510009FFAA068216C08446168A060884214D3C7
:102520002068A06011E0E06800F092FA206CE16899
:1025300040420144E1602268914202D2616808444D
:10254000E060022F01D105B16D1E681CA06330460A
:10255000F2BD10B5026C0B466AB1C1684468114403
:10256000C160A14224BF0168C160C168BDE81040DC
:10257000184600F06DBA10BDF8B5044600F0E6F953
:1025800004F1440504F1100795F9016005E0FFF737
:1025900050FF08B1FFF7C4FB761E76B2012E02DBB6
:1025A00078690028F3D14FF0FF346C7000F0E7F940
:1025B00000F0CCF995F9006006E03846FFF73BFBE8
:1025C00008B1FFF7ADFB761E76B2012E02DB38684C
:1025D0000028F2D12C70BDE8F14000F0D0B910B560
:1025E000044600F0B3F9A06B441EA44100F0C7F903
:1025F000E00F10BD10B50021084A02EBC1035C6872
:10260000844204D1002042F83100586010BD491CBA
:102610000829F2D310BD000004ED00E06C9F0020FB
:102620002DE9F8430446FFF705FA694FB86800251D
:10263000A94608BB07F1180307F1180213F00703B6
:102640004FF47051104605D0D01DC008C000C0F531
:102650007051511809180839C908C90038607D60DF
:10266000B9604D600D600A1A4260016040683861CF
:10267000F8604FF0004078614FF0500878690442EC
:1026800042D1002C40D0083414F0070F1FBF04F1D2
:10269000080004F00701441A14F0070F00F03DF899
:1026A00094B3F868A0422FD33E68384601E0304624
:1026B0000E467168A14202D231680029F7D1B9688B
:1026C0008E4221D0016801F108053168016070680F
:1026D000011B112908D3301910F0070200F01DF872
:1026E0004160746000F050F8F8687168401A396908
:1026F000F860884238BF3861706879690843706053
:10270000C6F8009005F00709FFF79AF9B9F1000F34
:1027100000F003F82846BDE8F28306D088F311885C
:10272000BFF34F8FBFF36F8FFEE7704738B50400DC
:1027300022D0274D54F8041C68695022014202D16E
:1027400000F01BF8FEE754F8083C13B100F015F850
:10275000FEE721EA000044F8040CFFF76BF9E86893
:1027600054F8041C0818E860A4F1080000F00CF804
:10277000BDE83140FFF764B931BD82F31188BFF382
:102780004F8FBFF36F8F704730B511490A4600E095
:102790001A4613688342FBD35368D418844203D18A
:1027A0004068C0185060104643681468C518A542B8
:1027B00008D189688C4204D06168C91841602468D6
:1027C00000E00C460460824218BF106030BD00007B
:1027D000D860002000F1080141604FF0FF318160B6
:1027E00000F10801C1600161002101607047002112
:1027F0000161704742684A6093688B6093685960D2
:10280000916008610168491C0160704730B50A6831
:1028100012F1010F08BF036907D000F1080300E0BF
:1028200023465C682568AA42FAD25A684A609160D9
:102830008B60596008610168491C016030BD4368C4
:10284000016982689A60836842685A604A68824275
:1028500004BF82684A60002202610868401E086066
:10286000704700004908490010B5A0F120034FF05F
:1028700080749961DC611A600FF2110159616FF087
:10288000020140F8241D203810BD00005F4949684E
:10289000502011F1010F06D080F31188BFF34F8F44
:1028A000BFF36F8FFEE780F31188BFF34F8FBFF345
:1028B0006F8FFEE71CB55648564B0268502100F05A
:1028C0003BF80268544B00F037F854494F4C0A78F3
:1028D0000192FF220A700A788DF800209DF80020EE
:1028E00002F050022270072205E09DF800305B00E4
:1028F000521E8DF800309DF800301B06F5D41202F0
:1029000002F4E062A260019A0A70016A41F4700167
:102910000162016A41F07041016200F089F8002013
:10292000606000F017F93E48016841F040410160E5
:1029300000F004F9002016BD9A4206D181F31188F7
:10294000BFF34F8FBFF36F8FFEE77047502080F3C8
:102950001188BFF34F8FBFF36F8F2C494A68521C09
:10296000012A4A600AD12F490968090606D080F376
:102970001188BFF34F8FBFF36F8FFEE77047234877
:10298000416839B9502080F31188BFF34F8FBFF3EE
:102990006F8FFEE7491E416004BF002080F311885D
:1029A000704780B5502080F31188BFF34F8FBFF37D
:1029B0006F8FFFF7A2F818B11A494FF080500860E6
:1029C000002080F3118801BDEFF30580502110280D
:1029D0000E4A0BD3144B185C1378984206D281F33D
:1029E0001188BFF34F8FBFF36F8FFEE790680F4AD8
:1029F000126802F4E062904206D281F31188BFF3BC
:102A00004F8FBFF36F8FFEE770470000B4200020A8
:102A100000ED00E071C20F4170C20F4100E400E020
:102A200034EF00E004ED00E0F0E300E00CED00E046
:102A30000549064809684FF47A72B1FBF2F1491E64
:102A40004160072101607047D420002010E000E0C1
:102A500062B38B0708D0521E11F8013B00F8013B0E
:102A600000F024808B07F6D1830740F0208000BF60
:102A7000103A07D330B4B1E83810103AA0E8381053
:102A8000F9D230BC530724BFB1E80810A0E8081001
:102A900044BF51F8043B40F8043BD20724BF31F84F
:102AA000022B20F8022B44BF0B7803707047083AC2
:102AB00007D3B1E80810083A40F8043B40F804CBCB
:102AC000F7D25307E4E70000EFF30980BFF36F8FFD
:102AD000244B1A681EF0100F08BF20ED108A20E961
:102AE000F04F106008B44FF0500080F31188BFF32E
:102AF0004F8FBFF36F8FFFF765F84FF0000080F343
:102B0000118808BC19680868B0E8F04F1EF0100F73
:102B100008BFB0EC108A80F30988BFF36F8F70474D
:102B2000104B19680868B0E8F04F80F30988BFF3CC
:102B30006F8F4FF0000080F3118870470A480068DB
:102B4000006880F3088862B661B6BFF34F8FBFF3A9
:102B50006F8F00DFDFF81400016841F4700101603D
:102B600070470000189D002008ED00E088ED00E0AF
:102B700038B5040001D1012032BD04F11C05287EC6
:102B800018B92870204600F09EFD032028762046C4
:102B900000F007F80020E861686101202876002035
:102BA00032BD30B589B004460020039004900590F2
:102BB0000690079003A97620089083B068461822F3
:102BC000FFF756FF0EBC2068DFF8A85300F01CFE8C
:102BD00000202860206800F031FE0120286004F108
:102BE0003405022001F0A4F8204600F086FC18B954
:102BF000204600F01CFC20B10121297000F097FB59
:102C0000012009B030BD9020029069460020039059
:102C1000049001200590206800F034BE71680843DC
:102C200070600120307070470320307000202268EF
:102C3000D06270472DE9F041044686B090461D46AB
:102C400004F1340611B900F060F80BE03078012887
:102C500053D10020706005EB0802B06A904204D2A4
:102C600000F04FF87060012048E0FFF7DDFF6F02D1
:102C70002068C26B42F49572C263BB08B2680FF25F
:102C80007960D063B2680FF2C160D0640020B2688E
:102C900010650A46206800F18001B06801F0CFF8A5
:102CA000DFF8D412012008606946306901284FF02E
:102CB000FF3018BF4FEA48280090019790200290FB
:102CC00040F2FF57022003900020FFF7A1FF00F021
:102CD00024F868B9022D05D3822000F01AF800F01C
:102CE000FBFD04E0812000F014F800F0EBFD28B1BA
:102CF00021688F63FFF792FF00E0022006B0BDE875
:102D0000F081706840F000707047706840F00060BB
:102D10007047206341462068704720684FF4007177
:102D200000F0C6BD2DE9F04304465FEA010887B014
:102D300017461E4604F1340503D1686840F0006070
:102D40000BE02878012856D100206860F119A86AA4
:102D5000884205D2686840F00070686001204BE04E
:102D60000320287000202168C86240F2FF592068C3
:102D7000C16B41F01A01C1630FF26D50E968C8637D
:102D8000E9680FF2C550C8640020E96808654FF48F
:102D9000007128690128206818BF7F0200F088FDB3
:102DA00068B9022E05D3A02000F029F800F0A8FD94
:102DB00004E0902000F023F800F098FD38B121687D
:102DC000C1F8389000F0B3FA0120287014E06A4985
:102DD000012008607702206800F18002E868BB08E3
:102DE000414601F02CF84FF0FF3000900197FFF7BB
:102DF0000AFF002000E0022007B0BDE8F083206356
:102E000039462068704770B5044604F134052168DE
:102E10005A484A6BD2053AD54FF4807200F0B0F8A8
:102E20000007206B1AD5800702D4206B800604D5DA
:102E300000F087FA08B100F0B0F8216840F2FF50C6
:102E4000886301202870206BC00702D4206B8007A4
:102E500018D52046BDE8704001F088B9000629D594
:102E6000206B800604D500F06CFA08B100F095F8EC
:102E7000206BC0077DD4206B80077AD400F05BFA0A
:102E8000012028702046BDE8704001F06DB94A6B02
:102E9000520410D54FF4804088630025266A2068CC
:102EA00006EB850100F0C5FC6D1C082DF7D3206AE8
:102EB0002030206270BD4A6B120410D54FF40040E0
:102EC00088630025A66A206800F0B2FC46F8250059
:102ED0006D1C082DF7D3A06A2030A06270BD4A6B2C
:102EE00040F23A231A4244D04A6B920703D56A68EB
:102EF00042F002026A604A6B120700F048F84A6B1F
:102F0000920603D56A6842F020026A604A6BD206D4
:102F100003D56A6842F010026A604A6B920500F0BD
:102F200036F840F2FF7200F02BF8000618D5E8687A
:102F300030B100F0D3F9E0B1E868BDE870402DE2AF
:102F4000A86830B100F0C4F998B1A868BDE8704035
:102F50004AE2686000F0B8F9BDE8704001F002B9DB
:102F6000206B000705D500F0AFF9BDE8704001F017
:102F7000FFB870BDA08025428C852542C5FCFFFFAF
:102F80008A632168CA6B1040C863206B704703D501
:102F90006A6842F008026A607047696808436860BE
:102FA000204601F0E5B870B500F13402136B1B0E3A
:102FB0009C090C70C3F383044C7003F003038B7003
:102FC000136B1B0CCB70136B1B0A0B71136B4B71C8
:102FD000536B1B0E1B01CB80536BCC88C3F3074391
:102FE00044EA1314CC8003F00F030B72536BC3F34A
:102FF0000724E3094B72C4F380138B72C4F34013AC
:10300000CB72C4F300130B7300234B734FF40073A4
:103010001569002D40F08680A00200F44060086130
:103020000125086992F8344040EA84000861906BF9
:103030000C69000E44EA90140C61C0F3C2040C75D4
:1030400000F007004875906B0002000E44098C7573
:10305000C0F382044000CC7500F006000876906B47
:103060000C7E0004000E44EAD0140C760C69641C3B
:1030700014620E7EB61C05FA06F6744314620E7ACC
:10308000B54055626D0A6C439462D362C0F38013FD
:1030900040004B7600F07E00887692F838008B7EF8
:1030A00043EAD0138B7600F07F00C876D06B000E19
:1030B000C3090B77C0F341134B77C0F38203800041
:1030C0008B7700F00C00C877D06B0302C87F1B0E13
:1030D00040EA9310C877C3F3401081F8200001F153
:1030E00021000021017003F001014170D16B0C043B
:1030F000240EE1098170C4F38011C170C4F3401142
:103100000171C4F300114171C4F38101817104F0B4
:103110000301C17192F83C1049080172012141720A
:10312000002070BD012D19D1506B000400F47C10FB
:1031300008610869946B240E40EA0420086108695C
:10314000946B240240EA14600861906B0C6953622E
:10315000641C0004A402000E146295E7006840F2AB
:10316000FF518163506840F0805050600120107022
:1031700070BD426C0A60826C4A60C26C8A60026DEB
:10318000CA60426D0A61826D4A61C26D8A61006ED9
:10319000C861002070472DE9F041064606F134046D
:1031A0008AB0032020700F462069032818BFB7F5A6
:1031B000805F49D0B7F5006F4FF080654FF400682D
:1031C0001DD10021CDE90011306800F051FB8001D4
:1031D00048BF454631D46946304600F0DBF950B966
:1031E0000198400329D500F057F820B93068022132
:1031F00000F026FC08B105461FE000251DE0FFB9E0
:103200000022CDE90012306800F032FB800148BF97
:10321000454612D46946304600F0BCF950B90198D1
:10322000C0030AD500F038F820B93068002100F05A
:1032300007FC08B1054600E000256068284306E069
:10324000606840F0006002E0606840F080506060BC
:103250003568606828B140F2FF50A86301202070F3
:1032600017E07068039003A9B06804901822F06812
:103270000590069770690790B069089083B068461A
:10328000FFF7F6FB0EBC284600F0BEFA01202070C6
:1032900000200AB0BDE8F081E0690104306800F068
:1032A000B7BB38B504460025206D0104206800F046
:1032B00046FC18B1A16B0843A06302E000F066F978
:1032C000450A05F00F0032BD0120287020467047E6
:1032D0000FF215110165A86800F0EFBD0FF2BD01F6
:1032E0000165E86800F0E9BD806B0068C16B41F4DE
:1032F0008071C1637047000038B5846B206B8228F1
:1033000004F1340507D100F01CF820B100F00FF8EB
:10331000204600F02DFF00F00EF840F2FF5021682B
:103320008863FFF7D1FFBDE8324000F01FBF696836
:103330000843686070472068C16A21F00801C162D3
:103340007047206800F0F2BA38B5846B04F1340598
:10335000A868406D01281EBFE868406D012818D19B
:10336000216840F2FF5088632068C16B21F49D7191
:10337000C163686840F08040686000F032F8062859
:1033800018BF052803D1FFF7DCFFFFF7D0FF0120AE
:1033900028702046BDE8324000F0EABE38B5846BA4
:1033A00004F13405E86808B10020E860A868B8B9FD
:1033B00000F017F8002169600121062818BF0528D0
:1033C00029700DD1FFF7BDFF696808436860686820
:1033D000002820461CBFBDE8324000F0C3BED9E73C
:1033E00031BD20465DE7000038B5846B04F134053B
:1033F000A86808B10020A860E868B8B9FFF7F1FF35
:10340000002169600121062818BF052829700DD107
:10341000FFF797FF696808436860686800282046DE
:103420001CBFBDE8324000F09DBEB3E731BD10B512
:1034300090B004460120ADF80C00206800F003FABB
:1034400010B94FF0806052E0606C032835D02068DE
:1034500000F008FB00284AD100F098F8606700F0FF
:1034600048F8A067082100F045F8E0670C2100F05B
:1034700041F8C4F88000606C03281ED0206803A9BE
:1034800000F00FFB002832D1606C032815D0BDF886
:103490000C0020650104206800F0EFFA38BB00F052
:1034A00075F8606600F025F8A066082100F022F8A3
:1034B000E0660C2100F01EF8206700F01AF8000DFD
:1034C000E06404A92046FFF76EFD206D0204206829
:1034D000002300F036FA50B983B0211D6846182247
:1034E000FFF7C6FA0EBC206800F08EF9002010B07D
:1034F00010BD0421206800F0BBB938B50446002097
:103500000090206800F02DFA00283ED1206800F0DD
:1035100044FA4FF6FF75C8B10020A0640098411C22
:10352000A842009119D02068002100F071FA20B95A
:103530002068002100F076FA10B14FF0805032BDC3
:1035400000F024F8C00FE9D000201CE00120A064A6
:103550000098411CA842009102D14FF0807032BD0A
:103560002068002100F054FA78B920684FF08041BB
:1035700000F058FA48B900F009F8C10FE8D010F08F
:10358000804018BF01206064002032BD2068002107
:1035900000F06EB9F0B589B004460D46002700F082
:1035A000E9FDCDE9007706462068082100F080F9A2
:1035B00000285CD100F05DF8002858D14FF0FF30B2
:1035C000029006970820039002A930200490022060
:1035D000059001200790206800F054F9206800F061
:1035E00031FA002843D100F049F8416B0FD189022C
:1035F00004D500F01DF94DF827007F1C00F0BAFD3E
:10360000801B10F1010FEED14FF000402FE00907B1
:1036100048BF082108D4416B890748BF022103D461
:10362000416B890603D52021816308461FE040F2E3
:10363000FF5181630098010201F47F0141EA0060BB
:103640000099090A01F47F410843009940EA11609A
:1036500068600198010201F47F01020A41EA0061F9
:1036600002F47F42114341EA10602860002009B053
:10367000F0BD206D0104206800F0CAB92068416BDC
:1036800040F22A421142704782B00020009000228E
:103690005548416841F480414160416801F48041EE
:1036A0000091009900210091016841F08051016072
:1036B0000F21006800F08050009000986FF001002A
:1036C00002B000F077BD2DE9F04F87B0044601A8A5
:1036D000142100F0A1FD20684449884262D10020F5
:1036E00000904FF000654248424F416941F400614B
:1036F00041614FF48066416901F4006100914FF42B
:10370000805B0099002100914FF48048016841F0EE
:10371000040101604FF40009016801F00401009107
:103720004FF4001A009900210091016841F008014E
:10373000016001A9006800F00800009000984FF4B3
:10374000F850019000F031F82B4800F069FD04209A
:10375000019001A900F029F8284800F061FD2848EF
:1037600038607D604020B860002000F027F808B184
:1037700000F074FF2764BC63224F21484830386052
:103780007D600020B86000F019F808B100F066FF15
:10379000E763BC6300220521312000F00BFD3120DE
:1037A00000F025FD07B0BDE8F08F02200290002058
:1037B0000390032004900C2005907047F8603E6150
:1037C000C7F814B0C7F818802020F86100203862CC
:1037D000042078620320B862C7F82C90C7F830A0A4
:1037E000384600F0B9BA000040380240002C0140D1
:1037F00030380240AC9E002000080240000C02401D
:10380000586402400C9F00200EB44168DFF8FC248D
:103810001140009A1143019A1143039A194311432D
:10382000049A1143059A11434160002003B0704788
:1038300037E00968C0F88010002070470321FFE7D7
:10384000016000207047006800F00300704710B569
:103850000A688260C2680B694C6823438C68C96837
:103860002343120B194341EA0231C160002010BD0D
:1038700081B000221430009208180090009800686F
:1038800001B070470A6842624A688262C26A8B6805
:1038900022F0F7021A43CB681A430B6949691A43AD
:1038A00002E0D0F8800070471143C16200207047E9
:1038B00010B50446102086B000F02CF841F2883292
:1038C00010215BE110B50446112086B000F022F80B
:1038D00041F28832112151E110B50446122086B020
:1038E00000F018F841F28832122147E110B5044681
:1038F000182086B000F00EF841F2883218213DE120
:1039000010B50446192086B000F004F841F2883260
:10391000192133E101904020029000910020039092
:1039200069464FF480600490204690E710B586B059
:1039300000F093F80C2000F061F8DFF8D4230C219C
:103940001CE110B50446072086B06946019000923C
:1039500000F0EDF82046FFF77AFF41F288320721A8
:103960000CE110B586B00446002000900190029052
:103970000390694600F090F800F034F80146481EC4
:1039800011B94FF0004006E0616B0906F6D540F230
:10399000FF50A063002006B010BD10B586B00446ED
:1039A0004FF4D57000906946082000F027F800F029
:1039B00019F80146481E11B94FF0004010E0616B44
:1039C00011F0450FF5D0606B400703D54020A06390
:1039D000042005E0606B400644BF4020A063002047
:1039E00006B010BDDFF82C030068C0084FF47A71F0
:1039F000B0FBF1F041F2883148437047019040201C
:103A00000290002003904FF48060049020461EE74F
:103A100010B50446372086B0FFF77CFF41F28832AC
:103A20003721ABE010B5044686B0BB480843009090
:103A3000694629200190402002900020039088E0F0
:103A400010B593E010B586B000F007F83320FFF70B
:103A5000D5FF41F28832332190E0044600200090E7
:103A60006946704710B586B0FFF7F7FF0220019056
:103A7000C02002900020039007E010B50446092002
:103A800086B00190C02000F06BF800F005F82046E9
:103A900000F002F906B010BD4FF48060049020469B
:103AA000D5E630B585B00546002000900C460320D1
:103AB0000190694600F03BF82846FFF7C8FEFFF783
:103AC00091FF0146481E11B94FF000402DE0696B8F
:103AD00011F0450FF5D0686B400748BF042003D4B0
:103AE000686BC00702D50120A8631EE02869C0B238
:103AF000032818BF012018D140F2FF50A86300210D
:103B00002846FFF7B5FE10F4604F03D1000C20806B
:103B100000200AE0410448BF4FF4005005D40004DF
:103B20004CBF4FF480504FF4803005B030BD402082
:103B30000290002003904FF480600490704710B50D
:103B400004460D2086B0FFF7E5FE41F288320D21D4
:103B500014E0FFF7A1FF204600F0BDF806B010BD4D
:103B600002900091002003906946704704460620A9
:103B700086B0FFF7CFFE41F288320621204600F0E2
:103B800002F806B010BD10B5624B1B68DB084FF49D
:103B90007A74B3FBF4F35A4313465A1E13B94FF029
:103BA000004010BD436B13F0450FF5D0426B520738
:103BB00048BF042103D4426BD20703D5012181639E
:103BC000084610BD0269D2B28A4201D0012010BD60
:103BD00040F2FF5181630021FFF74AFE4F4908423E
:103BE00001D1002010BD02D54FF0007010BD410082
:103BF00001D5402010BD810001D5802010BDC1003D
:103C000002D54FF4807010BD010102D54FF4007051
:103C100010BD410102D54FF4806010BDC10102D535
:103C20004FF4006010BD010202D54FF4805010BD6A
:103C3000410202D54FF4005010BD810202D54FF46D
:103C4000804010BDC10202D54FF4004010BD4103B9
:103C500002D54FF4003010BD810302D54FF480200F
:103C600010BDC10302D54FF4002010BD010402D5E0
:103C70004FF4801010BD410402D54FF4001010BD68
:103C8000810402D54FF4800010BD00074CBF4FF4F3
:103C900000004FF4803010BD1E490968C9084FF478
:103CA0007A72B1FBF2F141F2883251430A46511E59
:103CB00002B935E0426B12F0450FF7D0416B49076E
:103CC00048BF042103D4416BC90703D50121816397
:103CD0000846704727E00F490968C9084FF47A720F
:103CE000B1FBF2F141F2883251430A46511E02B94A
:103CF00016E0426B12F0450FF7D0416B490703D530
:103D000004218163042070470DE000000081FFFF63
:103D100000E1F505D42000200000108008E0FFFD40
:103D20004FF00040704740F2FF5181630020704720
:103D300038B5044600F01EFA14F1010F054602D012
:103D400004480078241800F015FA401BA042FAD36A
:103D500031BD00BFC820002070B5044600F00AFA4B
:103D600006460CB9012070BD04F13405002028700E
:103D70000220687000F09BF820680168C90708D528
:103D800000F0F8F9801B0628F6D3202028620320D3
:103D900053E00168DFF8DC22114062681143A26839
:103DA0001143E26811432269114362691143A26918
:103DB0001143E2691143226A1143626A042A03D162
:103DC000E26A236B1A431143016020684169626A09
:103DD000C908042A42EAC1010AD1A26AE36A11436E
:103DE00033B1A66996B9002A18BF022A20D017D38A
:103DF0004161204600F061F9AA6A3F21914081604B
:103E00000020286201206870002070BDB6F5005FB8
:103E10000AD1032AECD8DFE802F00D0B0D03E7E727
:103E2000B3F1C07FE4D105E0022A03D9D21EDFD16D
:103E3000DA01DDD5402028620120687070BDF8B538
:103E4000054605F1340600243078776A012801D14F
:103E50000220F2BD01203070707801281DD10220AF
:103E600070703462284600F019F9B16A3F2088402A
:103E7000B8602868016841F016010160286841694E
:103E800041F080014161F06820B12868016841F08B
:103E90000801016000F005F801E0347002242046BA
:103EA000F2BD2868016841F0010101607047206897
:103EB0000168490849000160704790F835100229EF
:103EC00003D08021416501207047052180F835101D
:103ED00000680168490849000160002070472DE929
:103EE000F04182B00446002004F1340600904FF403
:103EF0001651776A604800683D68B0FBF1F8B16A16
:103F0000082000FA01F10D420ED021680A6852071C
:103F10000AD50A6822F004020A60B16A8840B860D3
:103F2000306A40F001003062B06A25FA00F1C9073A
:103F30000BD521684969090607D5012101FA00F06E
:103F4000B860306A40F0020030620420B16A8840F4
:103F5000054208D021680968890704D5B860306A2D
:103F600040F0040030621020B16A884005421DD044
:103F700021680968090719D5B860206801684903F4
:103F800008D5006800030CD5716908000ED02046E2
:103F900088470BE00168C90503D4016821F00801D6
:103FA0000160F16808001CBF20468847B16A2020E4
:103FB000884005423DD021680968C90639D5B860F6
:103FC000206871780529016818D100F057F8F06869
:103FD000002804BF7069002801D000F058F83F2085
:103FE000B16A8840B8600020307001207070F169BB
:103FF00008003BD02046BDE8FC410847490308D5EE
:104000000068000310D43169080012D020468847A8
:104010000FE00168C90507D4016821F010010160B3
:104020000020307001207070B16808001CBF20466D
:104030008847306AD0B1306AC00710D5052070704B
:10404000FFF735FF0098401C8045009003D320689F
:104050000068C007F6D40020307001207070B1698C
:10406000080003D02046BDE8FC410847BDE8F381C5
:10407000000000003F8010F0D420002021F0160145
:1040800001602068416921F080014161704720682A
:10409000016821F0080101607047000030B5046834
:1040A000256825F48025256063608068402807BF67
:1040B000A260E160A160E26030BD016801F0FF0232
:1040C000103A1823B2FBF3F20FF214039B5CC365A2
:1040D000890A8902042A28BF091D8165084670479C
:1040E000000610160006101638B501208DF80000E5
:1040F0009DF80000012801D0012032BD184C204657
:10410000FEF736FD050006D14FF400612046FFF7AB
:1041100042F800B10125284632BD13460A4610B5C3
:1041200001460F48FEF786FD06E013460A4610B525
:1041300001460B48FEF7F6FD002400B1012420469D
:1041400010BD80B50648FFF7ACF804280CBF00206E
:10415000012002BD01460248FFF70BB80000000035
:10416000909D002000F0AABA00F041BB00F046BBD1
:104170007047000001484068704700BFC820002019
:104180000901002806D51F4A00F00F00104400F86E
:10419000041C70471C4A115470471C490A684FF6AA
:1041A000FF0300021A4000F4E0601043184A104375
:1041B0000860704738B5154B1B68C3F30223C3F181
:1041C0000704052C28BF04241D1D072D34BF002320
:1041D000DB1E012505FA04F4641E2140994005FA0E
:1041E00003F35B1E1A401143BDE83440C8E70121C8
:1041F00000F01F029140074AFFE7400942F82010F3
:104200007047000018ED00E000E400E00CED00E075
:104210000000FA0500E100E0002200F0FDBA000015
:104220002DE9F84F02460023DFF8A881DFF8A891B6
:10423000DFF8A8A14FF00F0B01200C68984000EAAE
:10424000040E864540F0B8804D689C00022D18BFD2
:10425000122D0FD1DD0802EB850C04F01C05DCF8F3
:1042600020600BFA05F7BE430F6907FA05F53543E1
:10427000CCF820504FEA430C032516680F7905FA55
:104280000CF5ED4307F003072E4007FA0CF73E4309
:1042900016604E68012E18BF022E03D0112E18BFD3
:1042A000122E0FD19668CF682E4007FA0CF73E43C6
:1042B0009660566826EA00004E68C6F300169E40D7
:1042C00030435060D06828408D6805FA0CF52843CB
:1042D000D0604868C0006FD50020009004F00C0644
:1042E000DAF8000040F48040CAF800000BFA06F447
:1042F000DAF8000000F4804000900098980859F81F
:10430000205025EA0404364DAA4208BF002522D0D9
:10431000344DAA4208BF01251DD0334DAA4208BF23
:10432000022518D0314DAA4208BF032513D0304DC5
:10433000AA4208BF04250ED02E4DAA4208BF05256B
:1043400009D02D4DAA4208BF062504D02B4DAA4204
:104350000CBF07250825B5402C4349F820406FEADB
:104360000E00D8F8004000EA040C4C68E40348BF93
:104370004EEA0C0CC8F800C0D8F8044000EA040C5F
:104380004C68A40348BF4EEA0C0CC8F804C0D8F827
:10439000084000EA040C4C68E40248BF4EEA0C0CEA
:1043A000C8F808C0D8F80C4020404C68A40248BFA8
:1043B0004EEA0000C8F80C005B1C102BFFF43CAF69
:1043C000BDE8F18F02B9090481617047426951402B
:1043D00041617047003C01400838014044380240C8
:1043E000000002400004024000080240000C0240AD
:1043F000001002400014024000180240001C02405D
:1044000030B58BB000F022FA00F077F801A8142143
:10441000FFF702FF002000900022874C874D2068A4
:1044200040F0080020604FF47041206800F0080060
:104430000090009800200090206840F00400206068
:10444000206800F00400009000982846FFF7BAFFAB
:104450004FF47040019001A90120029000200390C8
:1044600004902846FFF7DCFE002000900022206820
:1044700040F4800020600521206800F48000009056
:1044800000983B20FFF796FE3B20FFF7B0FE00228E
:1044900005214520FFF78EFE4520FFF7A8FE68485E
:1044A0006849016000F18404002141608160C160BD
:1044B000016141610321816168460FF2A41109681D
:1044C0000091FDF7B2F8A060142201A80FF2C41108
:1044D000FEF7CEFA002101A8FDF78AF82060142229
:1044E00006A80FF2C411FEF7C3FA002106A8FDF7D3
:1044F0007FF86060FDF762F8FEE700B593B00FF259
:10450000641106A891EC0C0B80EC0C0B01A8142193
:10451000FFF782FE002000904B48016841F0805177
:104520000160006800F0805000900098002000902A
:104530004648016841F480410160006800F4804011
:1045400000900098022006900120099010200A9007
:1045500002200C9000200D9008200E9032200F9029
:10456000042010900720119006A800F089F90F2070
:104570000190002102200290002003904FF4C050CF
:1045800004904FF4A050059001A800F0D7FA13B0A2
:1045900000BD80B5FCF7F8FF4FF480512748FFF7C6
:1045A00015FF4FF47A70FDF739F8F5E7F8B5284CA8
:1045B000284D224E0BE001224FF400413046FFF718
:1045C00001FF012028704FF4FA70FDF727F84FF42F
:1045D00080413046FFF7FAFE28780028F3D1012207
:1045E0002146281DFCF7ABFC00286870E3D141F29E
:1045F0004C002F1841F23C0029180A223846FCF7DB
:10460000DFFC0028DDD142F2B0002B1842F27C0022
:10461000291832223846FCF7EDFD68703846FCF761
:1046200034FF01224FF40051C8E700680A4988426C
:1046300008BF00F063BB704730380240000C0240F6
:10464000909D0020002C0140403802400070004046
:1046500018A0002000000020000400407047000067
:10466000000000000000000000000000000000004A
:10467000000000000000000000000000000000003A
:10468000000000000000000000000000000000002A
:10469000000000009C520008934500080000000044
:1046A0000000000080000000A8520008AD4500088E
:1046B000FDFF0000000000008000000070470000C7
:1046C00010B5524C01202070FFF73BFD18B920783F
:1046D00000F0FE002070207810BD30B504464B4D30
:1046E00083B001202870FCF76EFFA0B1FFF7FCFC3F
:1046F00018B92046FFF7E4FF2870287801280AD06F
:104700000FF20C100021D0E90023CDE90023684608
:10471000FCF7FFFF686028783EBDD1E73EB508464C
:1047200011461A46FFF7F9FC012498B900F032F857
:104730000098102804BF019801280BD1FCF74BFF0B
:104740002D18FCF748FFA84204D2FFF7FAFC002816
:10475000F7D1002420463EBD3EB5084611461A4614
:10476000FFF7E3FC012498B900F014F80098102832
:1047700004BF019802280BD1FCF72DFF2D18FCF780
:104780002AFFA84204D2FFF7DCFC0028F7D100245E
:1047900020463EBD1D48416847F230552A466846CE
:1047A000FCF7EABF10B5194888B00078C007144676
:1047B00048BF032019D4032916D8DFE801F01302FB
:1047C000070D6846FFF7C6FC06980AE06846FFF743
:1047D000C1FC0798208005E06846FFF7BBFC0798FE
:1047E000400A2060002000E0042008B010BD074807
:1047F00040684FF0FF320221FCF790BF0348406849
:104800004FF0FF320121FCF789BF0000C0200020DB
:104810000A0000000200000000B500BF1300964629
:104820009446103928BFA0E80C50FAD85FEA417CC2
:1048300028BF0CC048BF40F8042BC90728BF20F888
:10484000022B48BF00F8012B00BD000080B50B48CB
:10485000016841F400710160016841F48061016008
:10486000016841F4807101600320FFF796FC00208D
:1048700000F04CFAFEF708FF002002BD003C0240A9
:104880002DE9F843040015D02078A84DC00743D582
:10489000A86800F00C00042807D0A86800F00C00FD
:1048A000082809D16868400206D52868800333D5F6
:1048B000606888BB012036E16068B0F5803F06D0B3
:1048C000B0F5A02F286806D140F480202860286821
:1048D00040F4803005E020F480302860286820F41F
:1048E00080202860606858B1FFF744FC07462868BC
:1048F000800311D4FFF73EFCC01B6528F7D30FE1FE
:10490000FFF738FC07462868800305D5FFF732FC1F
:10491000C01B6528F7D303E12078854E800718D5A2
:10492000A86810F00C0F07D0A86800F00C00082849
:1049300023D16868400220D42868800702D5E06847
:104940000128B7D12868216920F0F80040EAC100A9
:104950002860207800073AD56169764851B3012173
:104960000160FFF707FC0746686F80072FD4FFF749
:1049700001FCC01B0328F7D3D2E0E06868B1012036
:104980003060FFF7F7FB074628688007DAD4FFF7A7
:10499000F1FBC01B0328F7D3C2E03060FFF7EAFB4E
:1049A000074628688007D4D5FFF7E4FBC01B03281F
:1049B000F7D3B5E00160FFF7DDFB0746686F8007BE
:1049C00005D5FFF7D7FBC01B0328F7D3A8E0207855
:1049D000400761D5286CC0004FF000080CD4CDF81A
:1049E00000804FF00108286C40F080502864286C4B
:1049F00000F0805000900098DFF83C91D9F800005A
:104A0000C00512D4D9F8000040F48070C9F8000045
:104A1000FFF7B0FB0746D9F80000C00505D4FFF743
:104A2000A9FBC01B0328F6D37AE0A068012805D0B3
:104A30000528286F06D140F004002867286F40F051
:104A4000010005E0400840002867286F20F00400BE
:104A5000286741F28939A06858B1FFF78BFB0746F8
:104A6000286F800711D4FFF785FBC01B4845F7D39B
:104A700056E0FFF77FFB0746286F800705D5FFF755
:104A800079FBC01B4845F7D34AE0B8F1000F03D0CB
:104A9000286C20F080502864A069002842D0A968C2
:104AA00001F00C0108293FF405AF02282BD10020AA
:104AB0003066FFF75FFB07462868800105D5FFF7E2
:104AC00059FBC01B0328F7D32AE0E069216A084399
:104AD000616A40EA8110A16A891EC903090C40EA93
:104AE0000140E16A40EA0160686001203066FFF73A
:104AF00041FB07462868800114D4FFF73BFBC01B2D
:104B00000328F7D30CE000203066FFF733FB07469D
:104B10002868800106D5FFF72DFBC01B0328F7D3BB
:104B2000032000E00020BDE8F28300BF003802400F
:104B300000004742800E4742007000402DE9F041DE
:104B400004000D4652D0514E00F076F802D200F02B
:104B500072F84BD120684E4F810712D5400703D51C
:104B6000B86840F4E050B8602078000703D5B86812
:104B700040F46040B860B868A16820F0F0000843D5
:104B8000B8602078C00729D56068012802D139684B
:104B9000890305E0022818BF032803D13968890179
:104BA00003D423E03968890720D5B968890840EA29
:104BB0008100B860FFF7DEFA8046B868616800F0EF
:104BC0000C00B0EB810F09D0FFF7D4FAA0EB08007E
:104BD00041F289318842F0D303202AE0306800F0A6
:104BE0000F00854204D200F026F801D0012020E019
:104BF0002078400705D5B868E16820F4E050084304
:104C0000B8602078000706D5B868216920F46040B4
:104C100040EAC100B86000F045F8BA681D49C2F327
:104C20000312895CC8401C490860002000F06EF83F
:104C30000020BDE8F0813570306800F00F00A84218
:104C400070471548154A006812681549C2F3822258
:104C5000FFE7895CC84070470F2202600F4A136863
:104C600003F003034360136803F0F00383601368E9
:104C700003F4E053C3601268D20802F4E052026108
:104C80000248006800F00F0008607047003C0240D6
:104C90000038024030510008D4200020083802407B
:104CA000E452000810B5124C606800F00C000428B3
:104CB00002D0082802D019E00E4810BD206800F08C
:104CC0003F022068002340022068C0F388104CBFD8
:104CD00008490949A1FB000100F056F82168C1F319
:104CE0000141491C4900B0FBF1F010BD024810BD64
:104CF0000438024000127A000024F400024841689F
:104D00000278891841607047C820002010B501461C
:104D100088B000221D20FFF74DFA1D20FFF767FA2B
:104D200000200090144C1548016841F00201016018
:104D300001A9006800F002000090009802A8FFF7A7
:104D40008BFFFFF77EFF0E492160400040F2E73104
:104D5000E1600C49B0FBF1F0401E60600020206172
:104D6000A060204600F088F818B9204600F091F8BD
:104D700000E0012008B010BDAC9F00204038024088
:104D80000004004040420F001B4213D1094236D1BB
:104D90002AB18446B0FBF2F002FB10C2704700F06B
:104DA00097B9FCD30022002370470B0002000021BA
:104DB00000207047904271EB030CF6D370B5B1FA46
:104DC00081F4B3FA83F52C1BA340C4F1200532FA19
:104DD00005F63343A2405FF00046E64002E05B0880
:104DE0005FEA3202841A71EB030524BF204629468C
:104DF0007641F4D302000B003000002170BD012A7F
:104E0000CFD970B5140C20D0B1FA81F4B2FA82F582
:104E1000C4F120046419B4F12006D6D3B2405FF087
:104E20000044F440002502E052085FEA3303C61A4A
:104E300071EB020E24BF3046714664416D41F3D3DD
:104E400002000B002000290070BD0C46B1FBF2F1FE
:104E500002FB11452D0445EA1045B5FBF2F402FBB7
:104E6000145580B240EA0545B5FBF2F002FB105242
:104E700040EA044070BD000038B5040001D10120B3
:104E800032BD00F01BF818B92870204600F01EF95A
:104E90000AE00068C16841F00101C160016841F0A9
:104EA000010101600020704702206870211D206808
:104EB00000F0ACF801206870002032BD04F1380524
:104EC0006878704710B5044620680169890715D5D0
:104ED000C168890712D56FF00201016101212176B5
:104EE000806910F0030F204602D000F0F2F803E0D2
:104EF00000F0F0F800F087F80020207620680169C3
:104F0000490715D5C168490712D56FF00401016141
:104F100002212176806910F4407F204602D000F003
:104F2000D8F803E000F0D6F800F06DF80020207605
:104F300020680169090715D5C168090712D56FF006
:104F40000801016104212176C06910F0030F204699
:104F500002D000F0BEF803E000F0BCF800F053F817
:104F60000020207620680169C90615D5C168C906E8
:104F700012D56FF01001016108212176C06910F48B
:104F8000407F204602D000F0A4F803E000F0A2F831
:104F900000F039F80020207620680169C90708D59B
:104FA000C168C90705D56FF0010101612046FFF70F
:104FB0003CFB20680169090608D5C168090605D5CA
:104FC0006FF080010161204600F085F820680169DA
:104FD000490608D5C168490605D56FF04001016151
:104FE000204600F079F82068016989060AD5C16871
:104FF000890607D56FF0200101612046BDE8104009
:1050000000F06BB810BD204600F068B8F0B5244B36
:105010000468244A244D254E254F984218BFB0F10C
:10502000804F07D0B84218BFB04203D0A84218BF83
:1050300090420FD1D1F804C0984224F0700418BFF8
:10504000B0F1804F4CEA040417D0B8421CBFB04204
:10505000A84212D090421CBF164DA8420DD0164D4A
:10506000A8421CBF154DA84207D0154DA8421FBF2E
:10507000144DA842144DA84203D1CD6824F44074C5
:105080002C43046098428C68C4620C68846212BF2E
:1050900090420969016301214161F0BD00000000F7
:1050A0000000014000040140000C004000080040E6
:1050B000000400400040014000440140004801401D
:1050C00000180040001C0040002000407047000015
:1050D00070477047704770477047704770470000CF
:1050E0000E480F4A016841F4700101600D480168E3
:1050F00041F00101016000218160016811400160FF
:1051000009494160016821F4802101600021C160EA
:105110004FF00060054908607047000088ED00E02E
:10512000FFFFF6FE003802401030002408ED00E0DA
:105130000000000000000000010203040607080947
:1051400019E050F8041BCB0744BFA9F1010359181B
:10515000121F0023042A41F8043BF9D25FEA827C43
:105160000B4604D54FF0000CA1F800C09B1CD107E2
:1051700044BF0021197050F8042B002AE1D1704778
:1051800030B5016842688468014401EB5203D207DC
:1051900048BF4C44994201D10C3030BD11F9012B6C
:1051A00011F8015B002A04F8015B02D5521CF9D109
:1051B000F0E7521EF4D5EDE77047FEE7FEE7FEE7A5
:1051C000FEE770470548FFF77DBE0548FDF71BBEAB
:1051D0000448FEF784BE0448FEF781BEAC9F002061
:1051E000909D0020AC9E00200C9F002010B5074928
:1051F00079441831064C7C44163404E00A68081DD2
:10520000114488470146A142F8D110BD2C0000008E
:10521000480000004EF68851CEF20001086840F4C4
:1052200070000860BFF34F8FBFF36F8F4FF00070B7
:10523000E1EE100A7047000009FFFFFF4C3F00003D
:10524000D86000200000000039FFFFFFD4010000FB
:10525000A00100000000002000F00BF8002801D0A1
:10526000FFF7C4FF0020C046C046FFF7C9F800F0B2
:1052700002F80120704700F001B8000007463846E8
:1052800000F002F8FBE7000080B5C046C046024AC5
:1052900011001820ABBEFBE726000200666972739E
:1052A000745461736B0000006D795461736B30321C
:1052B00000000000DB4600081B4700081D470008EF
:1052C00059470008A54700080148804701480047A2
:1052D000E1500008D9520008C046C046FFF79AFFC7
:1052E000FFF7BAFF0000000001020304FFF7FEBF52
:1052F000FFF7FEBFFFF7FEBFFFF7FEBFFFF7FEBFE2
:10530000FFF7FEBFFFF7FEBFFFF7FEBFFFF7FEBFD1
:10531000FFF7FEBFFFF7FEBFFFF7FEBFFFF7FEBFC1
:10532000FFF7FEBFFFF7FEBFFFF7FEBFFFF7FEBFB1
:10533000FFF7FEBFFFF7FEBFFFF7FEBFFFF7FEBFA1
:10534000FFF7FEBFFFF7FEBFFFF7FEBFFFF7FEBF91
:10535000FFF7FEBFFFF7FEBFFFF7FEBFFFF7FEBF81
:10536000FFF7FEBFFFF7FEBFFFF7FEBFFFF7FEBF71
:10537000FFF7FEBFFFF7FEBFFFF7FEBFFFF7FEBF61
:10538000FFF7FEBFFFF7FEBFFFF7FEBFFFF7FEBF51
:10539000FFF7FEBFFFF7FEBFFFF7FEBFFFF7FEBF41
:1053A000FFF7FEBFFFF7FEBFFFF7FEBFFFF7FEBF31
:1053B000FFF7FEBFFFF7FEBFFFF7FEBFFFF7FEBF21
:1053C000FFF7FEBFFFF7FEBFFFF7FEBFFFF7FEBF11
:1053D000FFF7FEBFFFF7FEBFFFF7FEBFFFF7FEBF01
:1053E000FFF7FEBFFFF7FEBFFFF7FEBFFFF7FEBFF1
:1053F000FFF7FEBFFFF7FEBFFFF7FEBFFFF7FEBFE1
:10540000FFF7FEBFFFF7FEBFFFF7FEBFFFF7FEBFD0
:10541000FFF7FEBFFFF7FEBFFFF7FEBFFFF7FEBFC0
:105420008100810081008100810081008100810074
:105430008100810081008100810081008100810064
:105440008100810081008100810081008100810054
:105450008100810081008100810081008100810044
:10546000A4000B7465737466696C652E747874811E
:105470000081008100810081008100810081008124
:105480000081008100810081008100810081008114
:105490000081008100810081008100810081008104
:1054A000008100810081008100810081008100ACC9
:1054B000002768656C6C6F207468697320697320BD
:1054C0004652454552544F5320616E642046415424
:1054D00046532074657374696E67EC00FCAAFC0087
:1054E0000001F9000001F9000010FC000224F400A2
:04000005080052D9C4
:00000001FF
