:020000040800F2
:1000000038A0002059020008DD210008CF20000898
:10001000D9210008750400081D3400080000000004
:100020000000000000000000000000009D0100082A
:10003000A305000800000000F1010008D931000804
:1000400073020008730200087302000873020008BC
:1000500073020008730200087302000873020008AC
:10006000730200087302000873020008730200089C
:10007000730200087302000873020008730200088C
:10008000730200087302000873020008730200087C
:10009000730200087302000873020008730200086C
:1000A000730200087302000873020008730200085C
:1000B0007302000829330008730200087302000865
:1000C000730200087302000873020008730200083C
:1000D000730200087302000873020008730200082C
:1000E000730200087302000873020008730200081C
:1000F000730200087302000873020008730200080C
:10010000730200086D2200087302000873020008E1
:1001100073020008730200087302000873020008EB
:1001200073020008730200087302000879040008D3
:1001300073020008730200087302000873020008CB
:1001400073020008730200087302000873020008BB
:100150007302000889040008730200087302000893
:10016000730200087302000873020008730200089B
:100170007302000873020008730200080000000008
:100180007302000873020008DFF80CD000F0EAF8F0
:1001900000480047B948000838A000202B4B1968D8
:1001A0000868B0E8F04F80F30988BFF36F8F4FF015
:1001B000000080F3118870470000000006480068C6
:1001C000006880F3088862B661B6BFF34F8FBFF353
:1001D0006F8F00DF00BF00BF08ED00E0DFF80C000C
:1001E000016841F470010160704700BF88ED00E0D4
:1001F000EFF30980BFF36F8F144B1A681EF0100FD6
:1002000008BF20ED108A20E9F04F106008B44FF0CD
:10021000500080F31188BFF34F8FBFF36F8F05F04D
:1002200047FD4FF0000080F3118808BC196808688A
:10023000B0E8F04F1EF0100F08BFB0EC108A80F34A
:100240000988BFF36F8F704700BF00BF7C0000209C
:10025000EFF30580704700000648804706480047D6
:10026000FEE7FEE7FEE7FEE7FEE7FEE7FEE7FEE766
:10027000FEE7FEE7C5320008890100082DE9F05FBE
:100280000546002092469B46884606468146402405
:100290001BE0284641464746224600F053F85346A5
:1002A0005A46C01A914110D311461846224600F012
:1002B0003AF82D1A67EB01084F462246012000212B
:1002C00000F031F817EB00094E41201EA4F10104A3
:1002D000DFDC484631462A464346BDE8F09F40EA07
:1002E00001039B0703D009E008C9121F08C0042AB4
:1002F000FAD203E011F8013B00F8013B521EF9D29B
:100300007047D2B201E000F8012B491EFBD27047C2
:100310000022F6E710B513460A4604461946FFF7D1
:10032000F0FF204610BD202A04DB203A00FA02F13B
:10033000002070479140C2F1200320FA03F31943D3
:1003400090407047202A04DB203A21FA02F0002175
:10035000704721FA02F3D040C2F1200291400843D5
:1003600019467047064C074D06E0E06840F001036F
:1003700094E8070098471034AC42F6D3FFF708FF23
:10038000D46B0008F46B00087047000010B50446F9
:100390002146024801F018FA10BD0000DC000020E0
:1003A00010B5044801F023FA042801D0012010BD43
:1003B0000020FCE7DC00002010B5002400F014F859
:1003C000012801D0012010BD064801F025FB04469C
:1003D00034B94FF40061034801F0A9F800B10124D9
:1003E0002046F0E7DC00002008B5012000909DF8D1
:1003F000000008BD2DE9F04104460D4616460027D1
:1004000033462A462146044801F02AFC00B1012760
:100410003846BDE8F0810000DC00002010B54FF048
:10042000FF3201210248006804F040FB10BD0000CB
:10043000580000202DE9F04104460D4616460027DD
:1004400033462A462146044801F0A8FC00B10127A2
:100450003846BDE8F0810000DC00002010B54FF008
:10046000FF3202210248006804F020FB10BD0000AA
:100470005800002000BFFEE710B5024800F0DAF88F
:1004800010BD00006001002010B5024800F0D2F855
:1004900010BD0000C0010020014608781038182364
:1004A000B0FBF3F20848805CC865032A05D90868E8
:1004B0006FF30900001D886503E008686FF3090009
:1004C0008865886D70470000006B000801460020B9
:1004D0008A6A8B69CBB932B1012A0DD0022A03D0C6
:1004E000032A10D10EE000BFCB6A03F08073B3F192
:1004F000807F00D1012007E0CB6AB3F1C07F00D13B
:10050000012001E000E000BF34E08B69B3F5005F3B
:100510001AD132B1012A07D0022A03D0032A11D1FD
:100520000AE000BF01200EE0CB6A03F08073B3F154
:10053000807F00D1012006E0CB6AB3F1C07F00D1FB
:10054000012000E000BF15E032B1012A05D0022AE7
:1005500004D0032A0CD103E000BF00BF012008E053
:10056000CB6A03F08073B3F1807F00D1012000E0FB
:1005700000BF00BF704730B50468246824F48024AD
:1005800005682C60046863608468402C04D10468AA
:10059000A2600468E16003E00468A1600468E260AE
:1005A00030BD7047704730B504460D4600222946DD
:1005B000204600F001F830BDF0B5034601250024C7
:1005C0001148407A01281CDA00200F4E767A0E4F2F
:1005D000B8553846467A001D40F82630001F467A46
:1005E000083082553E46707A461C7E72044604F1FD
:1005F000300008703A2048702F2088700020C870A2
:1006000000252846F0BD0000F8220020014691F8A0
:100610003500022803D0802048650120704705205E
:1006200081F835000868006820F001000A68106051
:100630000020F3E7F8B50446002000908C480068DD
:100640004FF41651B0FBF1F7A56D2E6894F85C10CD
:1006500008208840304098B12068006800F004000D
:1006600070B12068006820F004002168086094F8E8
:100670005C1008208840A860606D40F00100606553
:1006800094F85C1001208840304068B120684069CF
:1006900000F0800040B194F85C1001208840A86010
:1006A000606D40F00200606594F85C1004208840A2
:1006B000304068B12068006800F0020040B194F852
:1006C0005C1004208840A860606D40F00400606504
:1006D00094F85C1010208840304078B3206800689F
:1006E00000F0080050B394F85C1010208840A86017
:1006F0002068006800F4802080B12068006800F461
:10070000002028B9206CC8B12046216C884715E02C
:10071000A06C98B12046A16C88470FE02068006863
:1007200000F4807028B92068006820F00800216873
:100730000860206C10B12046216C884794F85C104A
:10074000202088403040002865D02068006800F0F4
:10075000100000285FD094F85C1020208840A8602A
:1007600094F83500052828D12068006820F016008C
:10077000216808602068406920F080002168486195
:10078000206C08B9A06C28B12068006820F008002F
:100790002168086094F85C103F208840A86000BF82
:1007A000002084F8340000BF012084F83500206D5B
:1007B00010B12046216D8847F8BD2068006800F41C
:1007C000802080B12068006800F4002028B9606CA7
:1007D00010B12046616C88471DE0E06BD8B120461F
:1007E000E16B884717E02068006800F4807068B902
:1007F0002068006820F010002168086000BF002019
:1008000084F8340000BF012084F83500E06B10B19B
:100810002046E16B8847606D38B3606D00F00100E1
:10082000F0B1052084F835002068006820F0010050
:100830002168086000BF0098401C0090B84200D9B1
:1008400005E02068006800F001000028F3D100BF37
:1008500000BF002084F8340000BF012084F8350078
:10086000E06C10B12046E16C884700BFA4E70000AF
:10087000700000202DE9F0410446002500F0DEF96B
:10088000074614B90120BDE8F081606A00B100BFDD
:1008900000BF002084F8340000BF022084F8350037
:1008A0002068006820F00100216808600AE000F07C
:1008B000C5F9C01B052805D920206065032084F8F0
:1008C0003500E0E72068006800F001000028EED164
:1008D0002068056821480540D4E901010843E16822
:1008E00008432169084361690843A1690843E16934
:1008F0000843216A08430543606A042803D1D4E908
:100900000B0108430543206805602068456925F010
:100910000705606A0543606A04280DD1A06A054393
:10092000E06A48B12046FFF7D1FD28B1402060655C
:10093000012084F83500A6E7206845612046FFF7CE
:10094000ABFD064694F85C103F208840B060002064
:100950006065012084F83500002094E73F8010F0A6
:100960002DE9F04704460D4616461F464FF0000895
:10097000D4F8589000BF94F83400012802D1022026
:10098000BDE8F087012084F8340000BF94F83500FA
:1009900001282BD1022084F83500002060653B46F9
:1009A000324629462046FFF7E6FD94F85C103F20CA
:1009B0008840C9F808002068006840F016002168E7
:1009C00008602068406940F0800021684861206C20
:1009D00028B12068006840F008002168086020689D
:1009E000006840F001002168086006E000BF0020B8
:1009F00084F8340000BF4FF002084046C0E7000012
:100A000070B5044600F01AF906462546681C10B178
:100A100004480078054400BF00F010F9801BA8428C
:100A2000FAD370BD6C000020F8B502460B460025D5
:100A3000002400200021DCE0012606FA01F51E68F2
:100A400006EA0504AC4273D15E68022E02D05E68ED
:100A5000122E13D1CF0802F1200656F827004E07B8
:100A6000F70E0F26BE40B0434F07FF0E1E69BE4073
:100A70003043CF0802F1200646F8270010684F00E7
:100A80000326BE40B0431E7906F003064F00BE4069
:100A9000304310605E68012E08D05E68022E05D0DB
:100AA0005E68112E02D05E68122E13D190684F003E
:100AB0000326BE40B0434F00DE68BE403043906026
:100AC000506801268E40B0431E79C6F300168E4052
:100AD00030435060D0684F000326BE40B0434F0003
:100AE0009E68BE403043D0605E6806F08056B6F126
:100AF000805F7DD100BF00260096404E366846F4E8
:100B000080463E4F3E603E46366806F4804600967C
:100B100000BF00BF3A4E8F0856F827008E07370FE8
:100B20000F26BE40B043374EB24202D1002624E029
:100B30005EE0354EB24201D101261EE0334EB24294
:100B400001D1022619E0324EB24201D1032614E04F
:100B5000304EB24201D104260FE02F4EB24201D1F5
:100B600005260AE02D4EB24201D1062605E02C4EA4
:100B7000B24201D1072600E008268F073F0FBE4092
:100B800030431F4E8F0846F82700264E3068A0439A
:100B90005E6806F48036B6F5803F00D12043214ED2
:100BA0003060361D3068A0435E6806F40036B6F546
:100BB000003F00D120431B4E361D3060361D30688B
:100BC000A0435E6806F48016B6F5801F00D120436E
:100BD000144E08363060361D3068A0435E6806F457
:100BE0000016B6F5001F00D120430E4E0C363060C3
:100BF000491C1029FFF420AFF8BD00004438024022
:100C00000838014000000240000402400008024091
:100C1000000C024000100240001402400018024084
:100C2000001C0240003C014042694A40426170475A
:100C30000AB1816101E00B048361704701480068DB
:100C400070470000640000200348006803490978E9
:100C50000844014908607047640000206C000020CF
:100C600010B50D48006840F400700B490860084654
:100C7000006840F4806008600846006840F48070B6
:100C80000860032000F0C6F8002000F007F800F02C
:100C90004BF8002010BD0000003C024070B588B049
:100CA000044600250026002221461D2000F073F88E
:100CB0001D2000F063F800BF002001901648006876
:100CC00040F00200144908600846006800F0020085
:100CD000019000BF00BF02A903A800F06FF900F067
:100CE00095F945000D48B5FBF0F0461E0C480D493E
:100CF000086040F2E7310B48C160466000210161A5
:100D0000816001F0DFF820B9064801F0F6F808B07C
:100D100070BD0120FBE700004038024040420F0058
:100D2000000400409C22002008B500BF0020009075
:100D30001148006840F480400F4908600846006888
:100D400000F48040009000BF00BF00BF0020009072
:100D5000081F006840F08050091F086008460068BE
:100D600000F08050009000BF00BF00220F21901EB5
:100D700000F011F808BD00004438024000BF00F048
:100D80001F02012191404209920002F1E022C2F8C3
:100D9000001100BF70472DE9F05F80460D461646F2
:100DA000002701F01DFA074639462A46334601F06E
:100DB0000700C0F1070ABAF1040F02D94FF0040A84
:100DC00001E0C0F1070AD14600F1040ABAF1070FA9
:100DD00002D24FF0000A01E0A0F1030AD4464FF01E
:100DE000010A0AFA09FAAAF1010A0AEA020A0AFA47
:100DF0000CFA4FF0010B0BFA0CFBABF1010B0BEAF9
:100E0000030B4AEA0B042146404601F0F1F9BDE824
:100E1000F09F000000BF00F00702064B19684FF674
:100E2000FF031940044B0B4343EA0221014B1960B5
:100E300000BF70470CED00E00000FA0570B50446F5
:100E40000D460CB9012070BD5848006800F00F0035
:100E5000A84209D255490D700846006800F00F00FD
:100E6000A84201D00120EEE7207800F0020002281D
:100E70001DD1207800F00400042805D14C480068FA
:100E800040F4E0504A490860207800F00800082843
:100E900005D14748006840F460404549086044482F
:100EA000006820F0F000A1680843414908602078FC
:100EB00000F00100A8B36068012807D13C48083859
:100EC0000068C0F34040B8B90120BCE76068022860
:100ED00002D06068032807D1354808380068C0F39D
:100EE000406048B90120AEE7314808380068C0F3D7
:100EF000400008B90120A6E72D48006820F0030053
:100F0000616808432A490860FFF798FE064609E031
:100F1000FFF794FE801B41F28831884202D90320FA
:100F200091E707E02248006800F00C006168B0EB30
:100F3000810FEDD11D48006800F00F00A84209D9CB
:100F40001A490D700846006800F00F00A84201D051
:100F5000012078E7207800F00400042807D1144825
:100F6000006820F4E050E1680843114908602078E7
:100F700000F00800082808D10D48006820F46040FF
:100F8000216940EAC1000A49086000F04FF80849A9
:100F90000968C1F30311074A515CC840064908605B
:100FA0000020FFF77BFE00204DE70000003C0240E0
:100FB00008380240086B0008700000200F22026011
:100FC0000D4A126802F0030242600B4A126802F0F6
:100FD000F0028260084A126802F4E052C260064AD7
:100FE000126802F46042D2080261044A126802F0F8
:100FF0000F020A607047000008380240003C0240BF
:1010000001480068704700007000002000B5FFF73D
:10101000F7FF04490968C1F38221034A515CC840C3
:1010200000BD000008380240186B00082DE9F047A9
:10103000002400250026A1462548006800F00C0089
:1010400020B1042805D008283AD105E0DFF88490C3
:1010500039E0DFF8849036E01D48001F006800F09A
:101060003F041B48001F006800F4800078B11A4854
:101070001749091F0968C1F38811A0FB01700146D7
:10108000224600233846FFF7F9F805460EE01148DE
:101090000F49091F0968C1F38811A0FB01700146BF
:1010A000224600233846FFF7E9F805460848001FA6
:1010B0000068C0F30140401C4600B5FBF6F902E0B1
:1010C000DFF8109000BF00BF4846BDE8F087000081
:1010D000083802400024F40000127A00F8B50446F3
:1010E0000CB90120F8BD207800F00100002874D070
:1010F000F948006800F00C0004280DD0F64800689C
:1011000000F00C00082813D1F348001F006800F419
:101110008000B0F5800F0BD1EF4808380068C0F3AD
:101120004040002859D06068002856D10120D9E7F6
:1011300000BF6068B0F5803F08D1E7480838006814
:1011400040F48030E449083908601EE06068B0F57A
:10115000A02F0DD1E0480838006840F48020DE4917
:10116000083908600846006840F4803008600CE0E8
:10117000D9480838006820F48030D7490839086019
:101180000846006820F48020086000BF606890B1C5
:10119000FFF754FD054606E0FFF750FD401B6428AD
:1011A00001D903209EE7CC4808380068C0F34040CE
:1011B0000028F1D011E0FFF741FD054606E0FFF7FA
:1011C0003DFD401B642801D903208BE7C248083845
:1011D0000068C0F340400028F1D1207800F0020000
:1011E00002285FD1BC48006800F00C0058B1BA4832
:1011F000006800F00C0008281CD1B748001F0068E8
:1012000000F48000B0B9B44808380068C0F340006A
:1012100020B1E068012801D0012063E7AE4808381A
:10122000006820F0F800216940EAC100AA490839A5
:10123000086037E0E06800B30120A8490860FFF7C4
:10124000FDFC054606E0FFF7F9FC401B022801D92A
:10125000032047E7A04808380068C0F34000002892
:10126000F1D09D480838006820F0F800216940EA74
:10127000C10099490839086014E0002097490860C6
:10128000FFF7DCFC054606E0FFF7D8FC401B022810
:1012900001D9032026E7904808380068C0F34000D1
:1012A0000028F1D1207800F0080008282CD16069CE
:1012B000A8B101208A490860FFF7C0FC054606E096
:1012C000FFF7BCFC401B022801D903200AE7824833
:1012D0006C300068C0F340000028F1D014E000201A
:1012E0007F490860FFF7AAFC054606E0FFF7A6FC69
:1012F000401B022801D90320F4E677486C300068CF
:10130000C0F340000028F1D1207800F00400042848
:1013100070D1002670483830006800F0805090B9D5
:1013200000BF002000906C483830006840F08050CA
:101330006949383108600846006800F08050009024
:1013400000BF00BF01266748006800F48070B0B994
:101350006448006840F4807062490860FFF76EFCE2
:10136000054606E0FFF76AFC401B022801D903206E
:10137000B8E65C48006800F480700028F2D000BF36
:10138000A068012808D154486830006840F0010086
:101390005149683108601DE0A06805280DD14E480C
:1013A0006830006840F004004B4968310860084626
:1013B000006840F0010008600CE0474868300068B1
:1013C00020F001004449683108600846006820F0B8
:1013D0000400086000BFA068A8B1FFF72FFC054615
:1013E00009E0FFF72BFC401B41F28831884202D90B
:1013F000032077E626E0384868300068C0F34000F4
:101400000028EED013E0FFF719FC054608E0FFF7CF
:1014100015FC401B41F28831884201D9032061E666
:101420002D4868300068C0F340000028EFD1012E3D
:1014300007D129483830006820F0805026493831DB
:10144000086000BFA069B8B32348006800F00C0032
:1014500008285ED0A069022846D100201F490866EE
:10146000FFF7ECFB054606E0FFF7E8FB401B022810
:1014700001D9032036E6184808380068C0F34060F8
:101480000028F1D1D4E907010843616A40EA8111DB
:101490000122A06AC2EB500041EA00412C20005D0D
:1014A00041EA00600C49091F086001200B490866E9
:1014B000FFF7C4FB054607E02DE0FFF7BFFB401B2D
:1014C000022801D903200DE6034808380068C0F35C
:1014D00040600028F1D01EE008380240000047427A
:1014E000800E47420070004000200C490866FFF75C
:1014F000A5FB054606E0FFF7A1FB401B022801D92A
:101500000320EFE506480068C0F340600028F2D1F0
:1015100001E00120E6E50020E4E50000000047428C
:101520000038024010B50446FEF72EFF10BD70B51E
:101530008AB004460D460026032084F83400606C0F
:10154000032820D0B5F5805F04D1A06B40F0805017
:10155000A0631CE0B5F5006F07D1204601F020FD27
:101560000646A06B3043A06311E03DB9204601F070
:10157000E2FC0646A06B3043A06308E0A06B40F09D
:101580000060A06303E0A06B40F08050A063A06BFC
:1015900040B140F2FF5021688863012084F8340094
:1015A0000AB070BD60680490A0680590E06806907D
:1015B000079560690890A069099007A807C88DE899
:1015C0000700206804A90EC900F058FE012084F825
:1015D00034000020E4E7704730B503460022586E1F
:1015E000020E90090870C2F38300487002F00300F5
:1015F0008870586EC0F30742CA70B3F86400C0F335
:1016000007220A7193F864204A71986E020E4FF611
:10161000FF7000EA0210C880986EC0F30742C888C5
:1016200040EA1210C88002F00F0008726820C05A09
:10163000C0F30722D0094872C2F380108872C2F347
:101640004010C872C2F30010087300204873586C31
:1016500000283ED19007000D08616820C25C08692F
:1016600040EA82000861D86E020E086940EA9210D2
:101670000861C2F3C200087502F007004875D86E11
:10168000C0F3074250098875C2F38200C8759007FD
:10169000400F08766C20C05AC0F30722087E40EA4B
:1016A000D21008760869401C58650C7E586DA41C41
:1016B0000125A540684358650C7A0120A040986533
:1016C000D3E91504640A6043D8654FF400741C66BE
:1016D00030E0586C012821D16820C25C9006800A55
:1016E0000861D86E020E086940EA02200861D86ECF
:1016F000C0F307420869104308616C20C05AC0F368
:1017000007220869441C4FF48060A4FB000458655C
:10171000D8654FF400749C651C660BE040F2FF50E6
:101720001C68A063986B40F080509863012083F898
:10173000340030BDC2F3801001F8190F9006400E3E
:1017400048706C20C25C487840EAD210487002F0C1
:101750007F008870186F020ED009C870C2F3411064
:101760000871C2F3820048719007000F8871186FEA
:10177000C0F30742887940EA92108871C2F34010A2
:10178000C8710020087202F0010048727020C05A2F
:10179000C0F30722D0098872C2F38010C872C2F366
:1017A00040100873C2F300104873C2F381008873BD
:1017B00002F00300C8737020C25C50080874012056
:1017C000487419390020B4E70246506C0860906CE8
:1017D0004860D06C8860106DC860506D0861906D75
:1017E0004861D06D8861106EC86100207047F8B5FF
:1017F000044604260025002000906946204601F09A
:1018000081FB054615B1A06B2843A0630098C0F387
:1018100043263046F8BD000070B504460025206818
:10182000406BC0F30020002863D04FF48070216823
:1018300088632068C06B40F23A3188432168C863EE
:10184000206B00F0080048B3206B00F0020018B9CC
:10185000206B00F0200050B1206800F0D7FE054654
:101860002DB1A06B2843A0632046FFF7B4FE40F2E1
:10187000FF5021688863012084F83400206B00F059
:10188000010018B9206B00F0020018B1204600F0EA
:101890007BFABCE0204600F07CFAB8E0206B00F058
:1018A00080000028F5D0206B00F0200050B12068A7
:1018B00000F0ACFE05462DB1A06B2843A063204686
:1018C000FFF789FE206B00F001000028E1D1206BBA
:1018D00000F002000028DCD12068C06A20F0080077
:1018E0002168C862012084F83400204600F051FAD3
:1018F0008DE02068406BC0F3803038B14FF48040F9
:1019000021688863204601F080FB80E02068406BFE
:10191000C0F3C03038B14FF40040216888632046DE
:1019200001F0DDFA73E02068406B40F23A21084094
:1019300008B1012000E00020002868D02068406B3A
:10194000C0F3400018B1A06B40F00200A063206813
:10195000406BC0F3C00018B1A06B40F00800A0635A
:101960002068406BC0F3401018B1A06B40F020001D
:10197000A0632068406BC0F3001018B1A06B40F06A
:101980001000A0632068406BC0F3402018B1A06B2A
:1019900040F00800A06340F2FF702168886320686F
:1019A000C06B40F23A3188432168C863206B00F075
:1019B000800010B3206C50B11548216C0865206C74
:1019C000FEF724FE10B1206C01F0D8F81FE0E06BA8
:1019D00050B11048E16B0865E06BFEF717FEB0B13F
:1019E000E06B01F09CF812E00020A063012084F875
:1019F00034002046FFF796FD09E0206B00F0080058
:101A000028B1012084F834002046FFF7E4FD70BDC2
:101A10007D2B00081F2B000810B504460CB90120CF
:101A200010BD94F8340020B900202077204600F043
:101A300051F8032084F83400204600F009F8002013
:101A4000A0632063012084F834000020E8E7000050
:101A500030B589B00446002500200390049005901D
:101A6000069007907620089006A807C88DE8070022
:101A7000206803A90EC900F001FC00201449086089
:101A8000206800F015FC01201149A039C1F8A00020
:101A90000220FEF7B5FF204601F0AAF9054645B140
:101AA000012084F83400A06B2843A063012009B012
:101AB00030BD204601F01EF905463DB1012084F8F5
:101AC0003400A06B2843A0630120F0E70020EEE77C
:101AD000A080254210B586B00446142101A8FEF767
:101AE00017FC5849206888427ED100BF0020009032
:101AF0005548006840F40060534908600846006893
:101B000000F40060009000BF00BF00BF0020009004
:101B10004D481438006840F004004B4914390860FF
:101B20000846006800F00400009000BF00BF00BF3E
:101B3000002000900846006840F008000860084651
:101B4000006800F00800009000BF00BF4FF4F8509C
:101B500001900220029000200390032004900C20AA
:101B6000059001A93948FEF75FFF0420019002208B
:101B7000029000200390032004900C20059001A9FE
:101B80003348FEF751FF3348334908604FF0006097
:101B900048604021304881600021C1604FF480617D
:101BA000016189004161890081612021C1610021B9
:101BB000016204214162032181624FF40001C1628C
:101BC00089100163FEF756FE08B1FEF7EBFC00BF7B
:101BD00021482064846300BF1E4848301F490860C4
:101BE0004FF00060486000E029E000211B48816060
:101BF000C1604FF4806101618900416189008161A8
:101C00002021C1610021016204214162032181621E
:101C10004FF40001C16289100163FEF72BFE08B189
:101C2000FEF7C0FC00BF0D48E063846300BF0022E4
:101C300005213120FFF7AFF83120FFF79FF806B0FC
:101C400010BD0000002C0140443802400008024052
:101C5000000C02405864024060010020C0010020D6
:101C60002DE9F04186B00446884616461D460027F9
:101C7000B8F1000F07D1A06B40F00060A063012015
:101C800006B0BDE8F08194F83400012873D100203B
:101C9000A0637119E06D814205D9A06B40F000701E
:101CA000A0630120ECE7032084F8340000202168C1
:101CB000C8622068C06B40F495702168C8632F48E3
:101CC000E16BC8632E48E16BC8640020E16B0865D6
:101CD0006A029308226802F180014246E06BFEF737
:101CE0003FFE012027490860606C012800D0760281
:101CF0004FF0FF3000906802019090200290022087
:101D0000039000200490012005906946206800F0AF
:101D100083FA4FF40071206800F028FB074657B1A2
:101D200040F2FF5021688863A06B3843A063012014
:101D300084F83400A4E7012D07D9822020633146BE
:101D4000206800F07FFB074606E0812020633146D3
:101D5000206800F094FB07465FB140F2FF50216815
:101D60008863A06B3843A063012084F8340087E7C0
:101D700001E0002084E7022082E70000D92A000861
:101D80007D2A00088C85254210B50446FEF746FBE7
:101D900010BD10B50446FEF761FB10BD2DE9F04102
:101DA00086B00446884616461D460027B8F1000F47
:101DB00007D1A06B40F00060A063012006B0BDE831
:101DC000F08194F83400012872D10020A0637119C9
:101DD000E06D814205D9A06B40F00070A063012046
:101DE000ECE7032084F8340000202168C8622068F2
:101DF000C06B40F01A002168C8632E48216CC8638C
:101E00002D48216CC8640020216C0865606C012895
:101E100000D076024FF40071206800F0A7FA074660
:101E200057B140F2FF5021688863A06B3843A0632C
:101E3000012084F83400C1E7012D07D9A0202063D8
:101E40003146206800F000FC074606E09020206341
:101E50003146206800F015FC074657B140F2FF50AC
:101E600021688863A06B3843A063012084F83400A4
:101E7000A4E701201149086069028B08216801F17B
:101E800080024146206CFEF76BFD4FF0FF30009062
:101E9000680201909020029000200390049001209D
:101EA00005906946206800F0B7F9002086E7FFE753
:101EB000022083E76B2B00087D2A00088C852542D1
:101EC0007047704710B504460CB9012010BD94F856
:101ED000390028B9002084F83800204600F00CF8BA
:101EE000022084F83900211D206801F025FA012024
:101EF00084F839000020E9E7704701460868C068A7
:101F000040F001000A68D0600868006840F00100F5
:101F10000A68106000207047704710B504462068BA
:101F20000069C0F34000D8B12068C068C0F3400029
:101F3000B0B16FF0020021680861012020762068AE
:101F4000806900F0030018B12046FFF7E5FF05E0C7
:101F5000204600F0ADF8204600F0ABF800202076D7
:101F600020680069C0F38000D8B12068C068C0F361
:101F70008000B0B16FF00400216808610220207673
:101F80002068806900F4407018B12046FFF7C4FF54
:101F900005E0204600F08CF8204600F08AF800208A
:101FA000207620680069C0F3C000D8B12068C068FE
:101FB000C0F3C000B0B16FF00800216808610420D0
:101FC00020762068C06900F0030018B12046FFF7B2
:101FD000A3FF05E0204600F06BF8204600F069F80A
:101FE0000020207620680069C0F30010D8B1206876
:101FF000C068C0F30010B0B16FF010002168086134
:10200000082020762068C06900F4407018B120468E
:10201000FFF782FF05E0204600F04AF8204600F076
:1020200048F8002020762068006900F0010058B1CF
:102030002068C06800F0010030B16FF00100216835
:102040000861204600F036F820680069C0F3C0102F
:1020500058B12068C068C0F3C01030B16FF0800084
:10206000216808612046FFF72BFF20680069C0F354
:10207000801058B12068C068C0F3801030B16FF094
:10208000400021680861204600F020F820680069BF
:10209000C0F3401058B12068C068C0F3401030B1A0
:1020A0006FF02000216808612046FFF70AFF10BD8D
:1020B0007047704710B5044603492068884201D133
:1020C000FEF7C2FD10BD000000040040704700BFD5
:1020D000FEE7000008B500BF002000900E48006831
:1020E00040F480000C4908600846006800F4800055
:1020F000009000BF00BF002205213B20FEF74BFEF1
:102100003B20FEF73BFE002205214520FEF743FE63
:102110004520FEF733FE08BD3038024010B50349B4
:102120000348FEF740FA0349087010BD5D00002027
:10213000E46A00085C00002000B587B0142102A802
:10214000FEF7E6F800BF002001901848006840F054
:102150000800164908600846006800F00800019071
:1021600000BF00BF00BF002001900846006840F09B
:10217000040008600846006800F00400019000BFF9
:1021800000BF00224FF470410948FEF751FD4FF4A3
:10219000704002900120039000200490059002A955
:1021A0000348FEF741FC07B000BD00003038024094
:1021B000000C0240064807490860002048600021E2
:1021C00004488160C1600161416103218161704700
:1021D000002C0140DC00002000BFFEE7704700003B
:1021E00002480068C0F30220704700000CED00E0D8
:1021F00010B5002807DA0A07140E054A00F00F038D
:102200001B1FD45403E00A07130E024A135410BDD7
:1022100018ED00E000E400E010B502460023086875
:10222000506248689062D1E9020420430C6920435F
:102230004C6920430343D06A20F0F7001843D06272
:10224000002010BD01460869C0B270470146086809
:1022500000F00300704708B502460020009002F12C
:102260001400084400900098006808BD10B50248AA
:10227000FFF7D2FA10BD0000DC0000200FB410B54B
:1022800004460021DDE903021043059A1043069A33
:102290001043079A1043089A10430143606847F6B9
:1022A000FF62904308436060002010BC5DF814FB9F
:1022B000014603200860002070470146D1F88000E5
:1022C000704710B50246002308689060D1E9010408
:1022D0002043CC6820430C6920430343D0686FF34C
:1022E0000B001843D060002010BD02460868C2F8F9
:1022F00080000020704770B586B005460C46002669
:1023000001943720029040200390002004904FF465
:102310008060059001A92846FFF7D3FF41F288327B
:102320003721284600F0EAF90646304606B070BD6F
:1023300070B586B005460C4600260B482043019038
:102340002920029040200390002004904FF48060E8
:10235000059001A92846FFF7B4FF284600F0CEFA01
:102360000646304606B070BD0000108070B586B0DD
:1023700005460C4600260194102002904020039050
:10238000002004904FF48060059001A92846FFF7D3
:1023900098FF41F288321021284600F0AFF9064636
:1023A000304606B070BD70B586B005460C460026B6
:1023B00001940620029040200390002004904FF4E6
:1023C0008060059001A92846FFF77BFF41F2883223
:1023D0000621284600F092F90646304606B070BD48
:1023E00030B585B004460025002000900190029091
:1023F00003904FF48060049069462046FFF761FF28
:10240000204600F05BF90546284605B030BD30B5E2
:1024100085B0044600254FF4D57000900820019047
:1024200040200290002003904FF4806004906946A1
:102430002046FFF746FF204600F0E0FA0546284612
:1024400005B030BD70B586B005460C460026019437
:102450001220029040200390002004904FF48060EE
:10246000059001A92846FFF72CFF41F2883212217E
:10247000284600F043F90646304606B070BD70B5F8
:1024800086B005460C46002601941120029040209B
:102490000390002004904FF48060059001A9284625
:1024A000FFF70FFF41F288321121284600F026F98C
:1024B0000646304606B070BDF0B585B006461446F7
:1024C0001D46002700940720019040200290002024
:1024D00003904FF48060049069463046FFF7F1FEA8
:1024E00041F288320721304600F008F907463846A5
:1024F00005B0F0BD30B585B0044600250020009041
:1025000002200190C0200290002003904FF48060D0
:10251000049069462046FFF7D4FE204600F0C0F93B
:102520000546284605B030BD70B586B005460C4658
:102530000026019409200290C020039000200490FE
:102540004FF48060059001A92846FFF7BAFE28469F
:1025500000F0A6F90646304606B070BD30B585B02D
:102560000446002500200090332001904020029076
:10257000002003904FF48060049069462046FFF7E6
:10258000A0FE41F288323321204600F0B7F805461C
:10259000284605B030BD70B586B005460C4600260D
:1025A00001940D20029040200390002004904FF4ED
:1025B0008060059001A92846FFF783FE41F288322A
:1025C0000D21284600F09AF80646304606B070BD48
:1025D00070B586B005460C46002600200190032009
:1025E000029040200390002004904FF480600590FA
:1025F00001A92846FFF765FE22460321284600F080
:10260000A5F90646304606B070BD000030B585B06D
:1026100004460025002000900C20019040200290EC
:10262000002003904FF48060049069462046FFF735
:1026300048FE044A0C21204600F060F80546284672
:1026400005B030BD00E1F50570B586B005460C4615
:10265000002601941920029040200390002004904D
:102660004FF48060059001A92846FFF72AFE41F249
:1026700088321921284600F041F80646304606B057
:1026800070BD70B586B005460C4600260194182032
:10269000029040200390002004904FF48060059049
:1026A00001A92846FFF70DFE41F28832182128467D
:1026B00000F024F80646304606B070BD01460E48CC
:1026C0000068C0084FF47A73B0FBF3F041F288332E
:1026D00000FB03F200BF101EA2F1010202D14FF075
:1026E00000407047486B00F080000028F3D040F2B3
:1026F000FF5088630020F4E7700000202DE9F041CE
:1027000005460E46174664480068C0084FF47A71C3
:10271000B0FBF1F000FB07F800BFB8F10000A8F132
:10272000010803D14FF00040BDE8F081686B00F074
:1027300045000028F1D0686B00F0040010B10420BF
:10274000A863F1E7686B00F0010010B10120A863F5
:10275000EAE72846FFF776FDB04201D00120E3E723
:1027600040F2FF50A86300212846FFF774FD04469D
:102770004A48204008B90020D6E704F00040B0F1F4
:10278000004F02D14FF00070CEE704F08040B0F16E
:10279000804F01D14020C7E704F00050B0F1005F46
:1027A00001D18020C0E704F08050B0F1805F02D1F9
:1027B0004FF48070B8E704F00060B0F1006F02D110
:1027C0004FF40070B0E704F08060B0F1806F02D188
:1027D0004FF48060A8E704F08070B0F1807F02D1F0
:1027E0004FF40060A0E704F40000B0F5000F02D140
:1027F0004FF4805098E704F48000B0F5800F02D1C8
:102800004FF4005090E704F40010B0F5001F02D11F
:102810004FF4804088E704F48010B0F5801F02D1A7
:102820004FF4004080E704F48020B0F5802F02D1FF
:102830004FF4003078E704F40030B0F5003F02D1E7
:102840004FF4802070E704F48030B0F5803F02D16F
:102850004FF4002068E704F40040B0F5004F02D1C7
:102860004FF4801060E704F48040B0F5804F02D14F
:102870004FF4001058E704F40050B0F5005F02D1A7
:102880004FF4800050E704F00800082801D100054B
:102890004AE74FF4803047E77000002008E0FFFD72
:1028A000014615480068C0084FF47A73B0FBF3F096
:1028B00041F2883300FB03F200BF101EA2F10102B7
:1028C00002D14FF000407047486B00F045000028EF
:1028D000F3D0486B00F0040010B104208863F2E7E5
:1028E000486B00F0010010B101208863EBE740F273
:1028F000FF5088630020E6E7700000200146124880
:102900000068C0084FF47A73B0FBF3F041F28833EB
:1029100000FB03F200BF101EA2F1010202D14FF032
:1029200000407047486B00F045000028F3D0486B2A
:1029300000F0040010B104208863F2E740F2FF5079
:1029400088630020EDE70000700000202DE9F041D1
:1029500004460E46174628480068C0084FF47A71AE
:10296000B0FBF1F041F2883100FB01F800BFB8F193
:102970000000A8F1010803D14FF00040BDE8F0814C
:10298000606B00F045000028F1D0606B00F004009F
:1029900010B10420A063F1E7606B00F0010010B1FA
:1029A0000120A063EAE72046FFF74CFCB04201D0CB
:1029B0000120E3E740F2FF50A06300212046FFF72B
:1029C0004AFC054605F4604018B9280C3880002000
:1029D000D4E705F48040B0F5804F02D14FF40050A9
:1029E000CCE705F40040B0F5004F02D14FF4805021
:1029F000C4E74FF48030C1E770000020014614485E
:102A00000068C0084FF47A73B0FBF3F041F28833EA
:102A100000FB03F200BF101EA2F1010202D14FF031
:102A200000407047486B00F045000028F3D0486B29
:102A300000F0040018B1402088630420F1E7486BDF
:102A400000F0400008B1402088630020E9E7000062
:102A50007000002010B50446012007490870FDF7FA
:102A60009FFC28B90448007820F001000249087052
:102A70000148007810BD00005400002070B50646E3
:102A8000B46BE06B406D012803D0206C406D0128D1
:102A90001ED140F2FF50216888632068C06B20F48B
:102AA0009D702168C863A06B40F08040A063204601
:102AB000FEF79DFE0546062D01D0052D05D12068A7
:102AC000FFF7A4FDA16B0843A063012084F8340044
:102AD0002046FEF780FD70BD70B50546AC6B002644
:102AE000206B82280AD12068FFF790FD06462EB1A0
:102AF000A06B3043A0632046FEF76DFD2068C06ADE
:102B000020F008002168C86240F2FF502168886305
:102B1000012084F834002046FFF736F970BD70B507
:102B20000646B46BE06B08B10020E063206CD8B9B6
:102B30002046FEF75CFE05460020A063012084F8D5
:102B40003400062D01D0052D0ED12068FFF75EFD63
:102B5000A16B0843A063A06B18B12046FEF7E2FC0E
:102B600002E02046FEF737FD70BD0146886B026823
:102B7000D26B42F480720368DA63704770B5064620
:102B8000B46B206C08B100202064E06BD8B92046FB
:102B9000FEF72DFE05460020A063012084F83400D6
:102BA000062D01D0052D0ED12068FFF72FFDA16B5A
:102BB0000843A063A06B18B12046FEF7B3FC02E007
:102BC0002046FEF708FD70BD2DE9F04188B00446AF
:102BD0000E460025FEF732F88046002700200090C0
:102BE000019008212068FFF7C1FB05461DB128466A
:102BF00008B0BDE8F0815022125B11042068FFF795
:102C00007AFB05460DB12846F2E74FF0FF300290FF
:102C100008200390302004900220059000200690A8
:102C20000120079002A92068FFF7F6FA2068FFF755
:102C300095FC05460DB12846DAE713E02068406BA5
:102C400000F4001028B12068FFF737FB4DF827008B
:102C50007F1CFDF7F3FFA0EB0800401C10B94FF0FC
:102C60000040C5E72068406B40F22A410840002838
:102C7000E4D02068406B00F0080018B108202168FB
:102C80008863B5E72068406B00F0020018B10220AD
:102C900021688863ACE72068406B00F0200018B121
:102CA000202021688863A3E740F2FF5021688863F1
:102CB00000980006009901F47F4140EA0120009944
:102CC00001F47F0140EA1120009940EA1160706030
:102CD00001980006019901F47F4140EA0120019921
:102CE00001F47F0140EA1120019940EA116030604F
:102CF00000207DE730B58FB0044600250120039009
:102D00002068FFF7A3FA18B94FF080600FB030BD0C
:102D1000606C03281BD02068FFF7ECFB05460DB163
:102D20002846F3E700212068FFF795FA6067042141
:102D30002068FFF790FAA06708212068FFF78BFA58
:102D4000E0670C212068FFF786FA80210851606C4B
:102D5000032807D003A92068FFF73AFC05460DB108
:102D60002846D3E7606C032820D0BDF80C102165FD
:102D70005022125B11042068FFF7D6FB05460DB107
:102D80002846C3E700212068FFF765FA6066042142
:102D90002068FFF760FAA06608212068FFF75BFA59
:102DA000E0660C212068FFF756FA206704212068AE
:102DB000FFF751FA010DE16404A92046FEF70CFC6F
:102DC0005020005B01040A4600232068FFF774FBD3
:102DD00005460DB1284699E7D4E90412A069CDE96A
:102DE0000012029094E80F00FFF748FA00208DE7E8
:102DF000F8B5044600200090002600270025206832
:102E0000FFF7EEFA05460DB12846F8BD2068FFF73A
:102E1000FEFA05466DB30021A16425E00098411C2F
:102E200000914FF6FF71884202D14FF08070ECE7BD
:102E300000212068FFF75FFA054615B14FF080507A
:102E4000E3E700212068FFF773FA054615B14FF05C
:102E50008050DAE700212068FFF7FDF906460120DF
:102E600080EAD67080F00107002FD7D00020606480
:102E700033E00121A16424E00098411C00914FF649
:102E8000FF71884202D14FF08070BEE700212068B8
:102E9000FFF731FA05460DB12846B6E74FF08041FD
:102EA0002068FFF745FA05460DB12846ADE7002139
:102EB0002068FFF7D0F90646012080EAD67080F03E
:102EC0000107002FD8D006F08040B0F1804F02D12A
:102ED0000120606401E000206064002095E770B587
:102EE00004460025A66A00BF05E02068FFF7E5F963
:102EF00046F825006D1C082DF7D3A06A2030A0628B
:102F0000002070BD70B504460D46002615B94FF07F
:102F1000006070BD5022125B11042068FFF73BFB7C
:102F200006460EB13046F4E700212068FFF793F91A
:102F300028600020EDE77CB5044600200090019059
:102F4000002500212068FFF786F900F00070B0F13D
:102F5000007F02D14FF400607CBD69462046FFF738
:102F600033FE05460DB12846F6E7019800F480309F
:102F700098B15022125B11042068FFF7BCF9054696
:102F80000DB12846E8E700212068FFF70CFA054656
:102F90000DB12846E0E70020DEE74FF08060DBE778
:102FA0007CB5044600200090019000250021206897
:102FB000FFF751F900F00070B0F1007F02D14FF43B
:102FC00000607CBD69462046FFF7FEFD05460DB159
:102FD0002846F6E7019800F4802098B15022125B51
:102FE00011042068FFF787F905460DB12846E8E788
:102FF00002212068FFF7D7F905460DB12846E0E722
:103000000020DEE74FF08060DBE770B50446002566
:10301000266A00BF05E006EB85012068FFF765F929
:103020006D1C082DF7D3206A20302062002070BD6F
:103030001CB5044601200F49087001F0C8FCB0B16E
:10304000FDF7BAF920B92046FFF704FD09490870D9
:103050000848007801280AD0074903C9CDE90001D2
:103060000021684601F0CBFC0449086000BF01481C
:1030700000781CBD54000020F86A000858000020A9
:10308000F0B589B007460D4614460126164800786B
:1030900000F0010010B1032009B0F0BD35B1012DE1
:1030A00006D0022D0BD0032D18D10FE0002617E01B
:1030B00001A8FDF76BF907982060002610E001A831
:1030C000FDF764F908982080002609E001A8FDF7C3
:1030D0005DF90898400A2060002601E0042600BF40
:1030E00000BF3046D8E70000540000202DE9F0432F
:1030F00087B081460C4615461E464FF00108324601
:1031000029462046FDF776F908BB47F230521248AF
:10311000016801A801F07CFC01A807C804AB07C343
:103120000498102813D10598012810D101F05DFCF6
:1031300047F23051471805E0FDF732F910B94FF06A
:10314000000803E001F051FCB842F5D300BF40464F
:1031500007B0BDE8F08300005800002010B5044619
:103160002046FFF777FC10BD2DE9F04387B081467C
:103170000C4615461E464FF00108324629462046A9
:10318000FDF758F908BB47F230521248016801A810
:1031900001F03EFC01A807C804AB07C3049810283F
:1031A00013D10598022810D101F01FFC47F23051CD
:1031B000471805E0FDF7F4F810B94FF0000803E0F8
:1031C00001F013FCB842F5D300BF404607B0BDE89C
:1031D000F08300005800002010B500BF502080F39D
:1031E0001188BFF34F8FBFF36F8F00BF03F090FACA
:1031F00018B14FF080500449086000BF002080F3F0
:10320000118800BF10BD000004ED00E000B593B0D0
:10321000302107A8FDF77CF8142102A8FDF778F803
:1032200000BF002001902548006840F080502349ED
:1032300008600846006800F08050019000BF00BFA1
:1032400000BF002001901E48006840F480401C49E7
:1032500008600846006800F48040019000BF00BF8D
:103260000220079001200A9010200B9002200D9060
:1032700000210E9108210F9132211091042111910A
:103280000721129107A8FDF729FF08B1FDF78AF978
:103290000F20029002200390002004904FF4C050B1
:1032A00005904FF4A0500690002102A8FDF7C6FD3E
:1032B00008B1FDF777F913B000BD000040380240B7
:1032C000007000401448006840F470001249086023
:1032D0001248006840F001001049086000200F49C2
:1032E000083108600D4800680D4908400B49086026
:1032F0000C48091D0860081F006820F48020091F81
:103300000860002005490C3108604FF00060024958
:10331000803908607047000088ED00E00038024006
:10332000FFFFF6FE1030002410B50248FEF7F5FD51
:1033300010BD00009C220020002202682C4B984205
:103340000ED0B0F1804F0BD02A4B984208D02A4BB8
:10335000984205D0294B984202D0294B984201D17E
:10336000012300E000231BB122F070024B681A43D6
:103370001F4B984220D0B0F1804F1DD01D4B98427A
:103380001AD01D4B984217D01C4B984214D01C4B9E
:10339000984211D01B4B98420ED01B4B98420BD039
:1033A0001A4B984208D01A4B984205D0194B9842B4
:1033B00002D0194B984201D1012300E000231BB138
:1033C00022F44072CB681A4302608B68C3620B68B8
:1033D0008362074B984202D0094B984201D10123E6
:1033E00000E000230BB10B690363012343617047C5
:1033F000000001400004004000080040000C0040B4
:1034000000040140004001400044014000480140E8
:1034100000180040001C00400020004000BFFEE7F4
:1034200002E008C8121F08C1002AFAD1704770478D
:10343000002001E001C1121F002AFBD170470000EB
:1034400070B504460D460020E070401E60632946BA
:10345000204601F096FA08B1042070BD04F236202F
:1034600001F019FA4AF65521884201D00320F4E709
:1034700094F83800E92807D094F83800EB2817D1E1
:103480003A20005D902813D104F16E0001F0F7F9A5
:1034900020F07F400749884201D10020DDE704F198
:1034A0008A0001F0ECF90449884201D10020D4E7F8
:1034B0000220D2E74641540046415433024600E020
:1034C000521C107810B110788842F9D110787047EA
:1034D00030B502460B460020044601461CE01A485F
:1034E00000EB01100068A8B1174800EB011000685C
:1034F0001568A8420FD1144800EB01104068956888
:10350000A84208D1104800EB011080685569A84214
:1035100001D103E00124491C0229E0D300BF0229A4
:1035200006D10CB9022B01D1002030BD1220FCE7DE
:1035300033B9054800EB01108089B0F5807F01D1D7
:103540001020F2E70020F0E7D822002001460020FA
:103550000BE0074A02EB001212688A4204D10022F3
:10356000034B03EB00131A60401C0228F1D3704791
:10357000D8220020F0B503460D461E68D86A021D09
:10358000B089B5FBF0F07789B0FBF7F400BF02CA51
:1035900009B90020F0BD8C4200D202E0641A121D6D
:1035A000F5E700BF10682044F4E70246891ED069A1
:1035B000801E884201D8002070475389106B01FBA0
:1035C0000300F9E72DE9F04782468946DAF8004022
:1035D000B9F1000F06D1676917B1E069B84215D893
:1035E000012713E04946504601F011F80646022E25
:1035F00002D20120BDE8F087701C08B93046F9E717
:10360000E069B04201D93046F4E74F463D4600BF7D
:103610006D1CE069A84204D80225BD4201D90020F2
:10362000E8E72946504600F0F2FF064606B909E0F1
:10363000012E01D0701C08B93046DBE7BD42E7D14E
:103640000020D7E700BF4FF0FF322946204601F0A7
:10365000F4FD8046B8F1000F08D1B9F1000F05D094
:103660002A464946204601F0E8FD8046B8F1000FA1
:103670000DD16561D4E90610801E814202D8A0698F
:10368000401EA061207940F00100207107E0B8F1F0
:10369000010F02D14FF0FF3000E00120054628461F
:1036A000A8E700002DE9F05F82468846D8F8007050
:1036B0000AF124050B222021284601F059F90020A7
:1036C000814606464FF0080B00BF3046761C3C5C36
:1036D000202C00DC36E02F2C01D05C2C08D100E03F
:1036E000761CB85D2F28FBD0B85D5C28F8D029E0A7
:1036F0002E2C01D0D9450CD3BBF10B0F01D02E2CB1
:1037000002D00620BDE8F09F4FF008094FF00B0BE8
:10371000DBE7802C03DBA4F1800015490C5C21461B
:1037200014A0FFF7CBFE08B10620EBE7612C04DB09
:103730007A2C02DCA4F12000C4B2484609F1010948
:103740002C54C2E700BFB819C8F80000B9F1000F47
:1037500001D10620D6E72878E52801D10520287078
:10376000202C01DC042000E00020E8720020C9E7E2
:10377000206B0008222A2B2C3A3B3C3D3E3F5B5DF0
:103780007C7F000010B50246531E1A46022B17D24A
:103790000C4B03EB02139989B1F5807F00D1002116
:1037A000002901DD4B1E99B2064B03EB02139981F0
:1037B00021B90023034C04EB02142360002000E035
:1037C000022010BDD82200202DE9F04104460E460B
:1037D000D4F800800021204600F007F90546EDB935
:1037E000002700BF4046E16901F0CBF8054605B16E
:1037F00013E0206A0078E52802D0206A007820B91A
:10380000781C0746B04201D107E00027012120467D
:1038100000F040F80546002DE4D000BF042D00D193
:1038200007252846BDE8F0812DE9F04104462768C8
:103830000021204600F0D9F8054615B12846BDE81C
:10384000F08100BF3846E16901F09BF8054605B1FB
:103850001DE0206A06780EB9042518E0206AC07AB7
:1038600000F03F00A071206AC07A00F0080038B96B
:103870000B2204F12401206A01F05BF800B906E094
:103880000021204600F006F80546002DDAD000BFE2
:103890002846D4E72DE9F047054689462C68686933
:1038A00000F12007E86910B1B7F5001F02D304202A
:1038B000BDE8F087A089B7FBF0F100FB117000288C
:1038C00069D1E869401CE861A86938B92089B0EB82
:1038D000571F60D80020E8610420E9E7A089B7FB02
:1038E000F0F06189491E0840002854D12846A96992
:1038F00000F08DFE0646012E01D80220D8E7701C8C
:1039000008B90120D4E7E069B0423ED8B9F1000F10
:1039100003D10020E8610420CAE72846A969FFF71F
:1039200051FE06460EB90720C2E7012E01D1022042
:10393000BEE7701C08B90120BAE7204601F0C4FEBA
:1039400008B10120B4E7A289002104F1380001F098
:103950000FF84FF0000831462046FFF726FE60635F
:103960000CE00120E070204601F0AEFE08B101201D
:103970009EE708F10108606B401C60636089404568
:10398000EFD8606BA0EB08006063AE613146204663
:10399000FFF70BFEE8616F61A089B7FBF0F100FB58
:1039A000117104F1380008442862002080E770B5E6
:1039B0000446266801212046FFF706FF054695B913
:1039C0003046E16900F0DDFF054665B9202200219F
:1039D000206A00F0CDFF0B2204F12401206A00F0E0
:1039E000BAFF0120F070284670BD2DE9F041044671
:1039F0000E462568B6F5001F02D206F01F0010B172
:103A00000220BDE8F0816661A7681FB92878032805
:103A100000DBEF6A47B92889B0EB561F01D80220B6
:103A2000EFE7E86AE0611DE06889A98900FB01F819
:103A300011E03946204600F0EAFD0746781C08B937
:103A40000120DEE7022F02D3E869B84201D8022044
:103A5000D7E7A6EB08064645EBD239462846FFF7DE
:103A6000A4FDE061A761E06908B90220C9E7A8895F
:103A7000B6FBF0F0E1690844E061A889B6FBF0F11B
:103A800000FB116105F13800084420620020B8E70E
:103A900070B5044600250848005D58B90120064964
:103AA000085501F10802105D0A1D52F82420116822
:103AB00088470546284670BDF82200202DE9F041D0
:103AC00004460D4616460649085D091F51F82410A4
:103AD00032460B692946984707463846BDE8F081CB
:103AE000002300202DE9F04104460D4616461F46EE
:103AF0000749085D091F51F824103B463246D1F8AA
:103B000008C02946E04780464046BDE8F0810000F5
:103B10000023002070B50446044A105D121F52F8BD
:103B20002420516888470546284670BD00230020A0
:103B30002DE9F04104460D4616461F460749085D2B
:103B4000091F51F824103B463246D1F80CC02946D3
:103B5000E04780464046BDE8F08100000023002099
:103B6000002100E0491C022905D2064800EB0110A3
:103B700000680028F6D1022901D0012070470020FA
:103B8000FCE70000D822002038B50546284600F0A2
:103B90007CF9044684B96946284602F0CFF8044609
:103BA00054B92869FFF7EEFD04460CB900202860DF
:103BB0000021009801F00CFE204638BDF7B582B018
:103BC00016460398019001A800F0BCFD0546002DA3
:103BD00002DA0B2005B0F0BD184850F8254054B16A
:103BE0002046FFF7B3FC206900F0F5FA08B902207F
:103BF000F0E700202070029850B100200299087070
:103C0000E8B20299103100F0D4FA08B90220E1E7D5
:103C10000A49029841F82500029808B1012E01D006
:103C20000020D7E7002202A903A800F0EDFA07461A
:103C30003946029801F0CCFD3846CBE774000020ED
:103C40002DE9F74F8EB0044616461CB9092011B075
:103C5000BDE8F08F06F03F06324601A90FA800F03C
:103C6000D3FA0546002D79D10198029002A80F9948
:103C700000F076FC05468DB99DF8370000F0800015
:103C800008B106250AE026F0010008B1012000E095
:103C90000020014602A8FFF71BFC054606F01C00A9
:103CA00000285CD06DB1042D08D1FFF759FF18B181
:103CB00002A8FFF77CFE00E01220054646F0080649
:103CC0000AE09DF80E0000F0110008B1072503E09E
:103CD00006F0040000B10825002D51D106F00800BF
:103CE00000284DD000F02CFD00900A9901F10E0043
:103CF000009901F08EFC0A9901F11600009901F07B
:103D000088FC20200A99C8720A99019800F0A4FD45
:103D1000814600220A99019801F069FC0A9901F193
:103D20001C00002101F075FC01200199C870B9F157
:103D3000000F25D00198406B00900022494602A850
:103D400001F008FC0546DDB9DDE9001000F019FEC0
:103D50000546A9F101000199486111E07BE07DB9B8
:103D60009DF80E0000F0100008B1042508E006F0F0
:103D7000020028B19DF80E0000F0010000B10725F7
:103D8000BDB906F0080008B146F040060198406B46
:103D900060620A98A06226F0010008B1012000E0EC
:103DA0000020014602A800F0F9FC2061206900B95A
:103DB0000225002D60D10A99019800F04DFDA06008
:103DC0000A9901F11C0000F05AFDE0600020E06259
:103DD000019820600198C088A08026750020607539
:103DE0002062A0614FF48052002104F1300000F005
:103DF000BFFD06F0200070B3E06860B3E068A0612A
:103E0000019840890199898900FB01FAA768D4F8D3
:103E10000C800CE03946204600F0F9FB0746012FE4
:103E200000D80225781C00B90125A8EB0A080DB9B5
:103E3000D045EFD8E76175B901988089B8FBF0F1FA
:103E400000FB118038B139460198FFF7AEFBB0F1A5
:103E5000000B01D102250FE001988089B8FBF0F03A
:103E600058442062226A01994878012304F1300104
:103E7000FFF738FE00B101250DB100202060294672
:103E8000019801F0A5FC2846E1E6F8B5044669462C
:103E9000204601F053FF0646002E48D1207D00F059
:103EA0004000002843D0207D00F0800090B1226ABD
:103EB00000994878012304F13001FFF739FE28B159
:103EC0000121009801F084FC0120F8BD207D00F064
:103ED0007F00207500F034FC0746616A009800F00E
:103EE00050FD06461EBBA56AE87A40F02000E87245
:103EF0002946A268206801F07AFB05F11C00E16800
:103F000001F087FB394605F1160001F082FB002124
:103F100005F1120001F089FB01200099C87000989A
:103F200001F08AFB0646207D00F0BF002075314677
:103F3000009801F04DFC3046C7E72DE9FF4F85B0F2
:103F4000044615469B46069802900020CBF80000D8
:103F500003A9204601F0F2FE0490049810B9607D98
:103F6000049038B1DDE9030101F032FC049809B096
:103F7000BDE8F08F207D00F0020028B907210398EA
:103F800001F026FC0720F2E700BFA0692844A169E0
:103F9000884202D2A069C0F1FF35FCE0A069039914
:103FA0008989B0FBF1F201FB120000287CD1A069E5
:103FB00003998989B0FBF1F003994989491E00EA08
:103FC000010ABAF1000F30D1A06938B9A76897B9D2
:103FD00000212046FFF7F6FA07460CE0E06A28B118
:103FE0002046A169FFF7C6FA074604E02046E169CA
:103FF000FFF7E8FA074607B9D0E0012F07D1022002
:1040000060750221039801F0E3FB0220AFE7781C02
:1040100038B9012060750121039801F0D9FB012016
:10402000A5E7E761A06800B9A760207D00F08000E7
:10403000A0B1226A03994878012304F13001FFF707
:1040400077FD38B1012060750121039801F0C0FBB4
:1040500001208CE7207D00F07F002075E169039846
:10406000FFF7A3FA06463EB90220607502210398C5
:1040700001F0AEFB02207AE7564403988089B5FB35
:10408000F0F9B9F1000F36D00AEB0900039949891C
:10409000884203D903984089A0EB0A09039948781C
:1040A0004B463246029900E03EE0FFF741FD38B151
:1040B000012060750121039801F08AFB012056E779
:1040C000206A801B484511D2206A831B0398B0F8F0
:1040D0000CC0029803FB0C010398828904F13000A4
:1040E00000F039FC207D00F07F0020750398808966
:1040F00000FB09F83AE0206AB04214D0E168A069F8
:10410000884210D2039948780123324604F13001E5
:10411000FFF7E8FC38B1012060750121039801F038
:1041200057FB012023E72662A06903998989B0FB28
:10413000F1F201FB120003998989A1EB0008A8455F
:1041400000D9A846A06903998989B0FBF1F201FB67
:10415000120104F13000084442460190029900F037
:10416000FAFB207D40F08000207500BF029840449B
:104170000290A0694044A061E168A069884201D929
:10418000A06900E0E068E060DBF800004044CBF8A4
:104190000000A5EB0805002D7FF400AF00BF207DD7
:1041A00040F0400020750021039801F011FB002031
:1041B000DDE6F8B506460C46002000900121684671
:1041C00000F0AAFC2060206808B1012000E0002077
:1041D00005462846F8BD10B50446204600F0B2FC5E
:1041E000012010BD10B50446204600F0B7FC10BDFC
:1041F00070B5044600254FF47A71204600F0D6FCD5
:1042000000B90125284670BD2DE9F74F8AB000217D
:104210000B9801600A9800F095FA08900898002819
:1042200003DA0B200DB0BDE8F08FC949089851F8AA
:1042300020400CB90C20F5E7204600F032FB08B90D
:104240000F20EFE70B9804600C9800F0FE000C9034
:10425000207878B16078FFF75DFC814609F00100B5
:1042600040B90C9820B109F0040008B10A20D9E740
:104270000020D7E700202070089860706078FFF772
:1042800007FC814609F0010008B10320CAE70C9839
:1042900020B109F0040008B10A20C3E7607804F1F6
:1042A0000C020221FFF70AFC08B10120BAE7A0893D
:1042B000B0F5805F07DCA089B0F5007F03DBA08943
:1042C000411E084008B10120ACE7002739462046CE
:1042D000FFF7B6F80546022D01D02EDA2DE00026B4
:1042E00014E04FF4DF7000EB061104F138000844CD
:1042F00009900998007920B10998083000F0BFFAB8
:1043000000E0002002A941F82600761C042EE8D324
:10431000002606B1761E00BF02A850F8267027B10D
:1043200039462046FFF78CF800E003200546022DB1
:1043300003DB701C06460428EED3042D01D10120B6
:1043400070E7022D01DB0D206CE704F1430000F063
:10435000A2FAA189884201D00D2063E704F14E0042
:1043600000F099FA8046B8F1000F04D104F15C0026
:1043700000F085FA8046C4F820804820005DA070D7
:10438000A078012804D0A078022801D00D2049E7A8
:10439000A07808FB00F84520005D6081608918B1B5
:1043A0006089411E084008B10D203BE704F1490037
:1043B00000F071FA2081A089C11700EBD161491189
:1043C000228992FBF1F301FB132109B10D2029E7AA
:1043D00004F14B0000F05FFA8246BAF1000F04D1FD
:1043E00004F1580000F04BFA824604F1460000F058
:1043F00052FA0190019808B90D2013E7A089C1175E
:1044000000EBD1614911228992FBF1F201994144FB
:104410001144079107998A4501D20D2002E70798B8
:10442000AAEB00006189B0FBF1FBBBF1000F01D1E9
:104430000D20F7E603254FF6F570834500D80225D9
:1044400040F6F570834500D801250BF10200E061CC
:10445000676201983844A062079838442063032DAE
:1044600013D104F1620000F016FA08B10D20D9E66C
:10447000208908B10D20D5E604F1640000F0FFF9B1
:10448000E062E0698000069014E0208908B90D2000
:10449000C8E6A06A4044E062022D02D1E069400013
:1044A00007E0207F00F00100E16901EB410100EB32
:1044B00051000690A089401E06990844A189B0FBCE
:1044C000F1F0216A884201D90D20ABE64FF0FF30B0
:1044D000A061606180202071032D2CD104F168005F
:1044E00000F0D9F9012826D1791C204600F049FABC
:1044F00008BB0020207104F2362000F0CCF94AF607
:104500005521884217D104F1380000F0B8F911495B
:10451000884210D104F5077000F0B1F90E498842C5
:1045200009D104F5087000F0AAF9A06104F509703A
:1045300000F0A5F96061257008480088401C80B231
:1045400006490880E0802046FFF700F8002069E671
:104550007400002052526141727241617800002063
:104560002DE9F34704462646D6F8008002E001987C
:10457000401C0190019800782F28F8D0019800780D
:104580005C28F4D00020B06001980078202808D280
:1045900080212F20015500212046FFF726FA0546ED
:1045A00032E000BF01A92046FFF77CF8054605B1BF
:1045B00029E02046FFF738F905462F20075D3DB179
:1045C000042D04D100BF07F0040000B905251AE04E
:1045D00007F0040000B116E0B07900F0100008B94F
:1045E000052510E0B8F80C106069B0FBF1F201FB92
:1045F000120108F1380001EB00094946404600F07D
:104600002BF9B060CEE700BF2846BDE8FC872DE956
:10461000F05F81460D46D9F80040022D02D3E069D3
:10462000A84202D84FF0010887E04FF0FF38207809
:10463000012804D002283AD003287AD156E02E4629
:1046400006EB5606A089B6FBF0F0A16A00EB010A62
:104650005146204600F095F900B16DE03046761CD9
:10466000A189B0FBF1F201FB120104F13800475CB3
:10467000A089B6FBF0F0A16A00EB010A5146204682
:1046800000F07FF900B157E0A089B6FBF0F100FB24
:10469000116104F13800405C47EA002705F0010091
:1046A00008B1380901E0C7F30B00804644E0B4F8D4
:1046B0000CA00AEBDA704010B5FBF0F0A16A00EB39
:1046C000010B5946204600F05CF900B134E0680067
:1046D000A189B0FBF1F201FB120104F1380001EBFA
:1046E000000A504600F0D7F8804625E0B4F80CA048
:1046F0004FEAEA700AEB90708010B5FBF0F0A16A07
:1047000000EB010B5946204600F03BF900B113E0E5
:10471000A800A189B0FBF1F201FB120104F13800FD
:1047200001EB000A504600F0AAF820F0704803E0C0
:10473000FFE74FF0010800BF00BF4046BDE8F09F13
:104740000020704770B502464FF0FF301568DDB1AC
:10475000116800E0491C0D78212D02D30D783A2D07
:10476000F8D10D783A2D0ED1146814F8015BA5F13B
:1047700030030A2B06D28C4204D11BB918464D1CBB
:104780002946156070BD002000BFFBE700BFEFF3B6
:10479000058008B1012070470020FCE710B50246F3
:1047A0000B46002116E02B4800EB0110006814684E
:1047B000A0420ED1274800EB011040689468A04247
:1047C00007D1244800EB011080685469A04200D151
:1047D00002E0491C0229E6D300BF022922D10021B0
:1047E00000E0491C022905D21A4800EB01100068BC
:1047F0000028F6D1022901D1002010BD154C04EB90
:10480000011410682060134C04EB01149068606080
:10481000104C04EB01145069A06000200D4C04EB17
:104820000114A08133B10B4800EB0110808908B15D
:104830000020E2E713B14FF4807004E0054800EB7C
:1048400001108089401C034C04EB0114A081481C1A
:10485000D3E70000D822002070B505460C4604F1CD
:104860001A0000F018F806462878032805D104F14C
:10487000140000F010F846EA0046304670BD0146CC
:10488000C8788A7842EA00204A7842EA00200A780A
:1048900042EA00207047014648780A7842EA002040
:1048A000704710B504462CB12069FFF7A1FC08B190
:1048B000012010BD0020FCE78CB0FCF7D1F9FEF719
:1048C000A5FCFDF739FCFDF705FCFDF773FC0020A6
:1048D0000B900BA800F01AF90E49086014220E493B
:1048E00006A8FBF7FCFC002106A800F095F90B498F
:1048F000086014220849143101A8FBF7F0FC0021DC
:1049000001A800F089F90649086000F069F800BFC5
:10491000FEE7000008000020BC6A0008000000203C
:104920000400002001460020842901D0CA1C104444
:104930007047F0B503461D460C46002000BF15F831
:10494000017B14F801CBA7EB0C00561E321E01D0E0
:104950000028F4D0F0BD30B503460C463AB100BF94
:1049600014F8015B03F8015B551E2A1EF8D130BD17
:1049700010B5034600BF03F8011B541E221EFAD1D6
:1049800010BD70B504460D460026606BA84210D0DD
:10499000204600F099FE06465EB9607801232A465B
:1049A00004F13801FFF79EF810B14FF0FF350126F2
:1049B0006563304670BD70B5044625460DB1294685
:1049C00000E00121084601F067F8002070BD10B535
:1049D00001F07EFE012801D1002010BD0120FCE77E
:1049E00010B501F019F9002010BD10B5FFF7CEFE8B
:1049F00010B101F083FE10BD01F07AFEFBE770B547
:104A000004460D460022D4E9000101F06AFA70BDA7
:104A10002DE9FF4107460D461446029500200190FE
:104A20003DB9802000909DE8070087E80700BDE8B9
:104A3000FF81002003900026601C08B9761E03E069
:104A400014B1264606B90126FFF7A0FEB0B103AAAD
:104A500001A9284601F060FD012802D11020009034
:104A600001E0002000900398C0B14FF080500E4943
:104A70000860BFF34F8FBFF36F8F0FE00023324604
:104A800001A9284601F05AFA012802D1102000900D
:104A900004E00EB9002000E0402000909DE80700EF
:104AA00087E8070000BFC2E704ED00E077B581B0FA
:104AB0000646144600200090254605B90125FFF75B
:104AC00065FEA8B100236A4602A9304601F038FC11
:104AD000012802D0FF2004B070BD009890B14FF0C3
:104AE000805009490860BFF34F8FBFF36F8F09E013
:104AF00000232A4602A9304601F04EFB012801D0CE
:104B0000FF20E8E70020E6E704ED00E010B50446EA
:104B1000012001F0D5F910BD70B506460D46012DF6
:104B20000ED103220021012001F0DBF904462CB153
:104B300000231A461946204601F02EFB204670BD80
:104B40000020FCE710B50446FFF720FE08B18220E4
:104B500010BD204600F072FF0020F9E738B504468A
:104B6000002500200090FFF711FE90B16946204615
:104B700001F062FC012801D0FF2038BD009888B107
:104B80004FF0805008490860BFF34F8FBFF36F8F1D
:104B900008E000231A461946204601F0FDFA0128D4
:104BA00000D0FF252846E8E704ED00E0F8B506460A
:104BB0000C46002000900EB98020F8BD0025601C36
:104BC00008B96D1E03E014B1254605B90125FFF7AC
:104BD000DDFD98B16A460021304601F09DFC0128B8
:104BE00001D0FF20E9E7009890B14FF080500949CB
:104BF0000860BFF34F8FBFF36F8F09E000232A4691
:104C00001946304601F09AF9012801D0FF20D4E777
:104C10000020D2E704ED00E0FEB504460D46B4F9ED
:104C20000800FFF77FFE064602A8CDE90060238A50
:104C30009AB22B46D4E9001001F01AFD012801D0E8
:104C40000020FEBD0298FCE72DE9F04105460E4626
:104C50001C4807681C480068001D00F0C7FD50B9DB
:104C60001948006890F82C100120884017490968FD
:104C7000814316480160681C38B936B11248016892
:104C8000091D134800F0F0FD1AE07C190E48006879
:104C90004460BC4207D20C480168091D0D480068F9
:104CA00000F0C8FD0CE008480168091D0A480068CA
:104CB00000F0C0FD09480068844201D20748046042
:104CC000BDE8F081900000207C00002094000020CE
:104CD000202400208400002080000020AC00002060
:104CE00010B5044600F0CCFD23480068401C224962
:104CF00008602248006840B92048046008460068FF
:104D000001280DD100F09CF90AE01D48006838B96F
:104D10001A480068C06AE16A884201D817480460EE
:104D200018480068401C1749086094F82C100120AE
:104D3000884015490968084313490860E16A01EB96
:104D40008101124A02EB8100211D00F08DFD00F06F
:104D5000C1FD0B48006868B108480068C06AE16A94
:104D6000884207D24FF0805009490860BFF34F8F47
:104D7000BFF36F8F10BD00008C0000207C0000206E
:104D800098000020A8000020940000204423002068
:104D900004ED00E070B523E000F082FF13480068E6
:104DA00008B9012000E00020054601F005FEBDB96C
:104DB00000F066FD0D48C068C468201D00F016FDB7
:104DC0000B480068401E0A4908600A480068401EF7
:104DD0000849086000F07EFD204600F060F800BF42
:104DE000044800680028D7D170BD00000C240020C2
:104DF0008C0000208800002070B504460D46206C11
:104E000070B1216CE0680844E0606168E068884245
:104E100001D32068E0602846226CE168FBF75FFA66
:104E200070BD2DE9F04104460F4615464FF00008CD
:104E3000A66B206C40B9206860BB606801F00CFD77
:104E400080460020606025E07DB93946226CA0686C
:104E5000FBF745FA216CA0680844A060D4E9011072
:104E6000884217D32068A06014E03946226CE068BD
:104E7000FBF735FA216CE068401AE0602168E068D1
:104E8000884203D2216C6068401AE060022D01D193
:104E900006B1761E701CA0634046BDE8F08110B5D7
:104EA0000446206B00F034FD204600F031FD10BDBB
:104EB00030B54FF47053174800F007042CB1C01DF3
:104EC00020F00700134C041B1B1B0246124C2260EF
:104ED0000024114D6C60D018083820F007000F4CEA
:104EE000206000240D4D2D686C600C4D2D682C60E9
:104EF0001146441A4C60094C24680C60084D4C68FB
:104F00002C60084D4C682C604FF00044064D2C601E
:104F100030BD000034240020B8000020C000002074
:104F2000C8000020C4000020CC00002000BFFFF714
:104F300031FF064800680128F9D94FF08050044934
:104F40000860BFF34F8FBFF36F8FF0E7442300205B
:104F500004ED00E010B504464CB100206060206014
:104F6000E06000231A461946204601F015F910BDED
:104F70002DE9F04106460D4617469846069C0DB9A8
:104F8000246000E02760E66325640121204601F0EB
:104F9000B7F8BDE8F0812DE9FF5F81460F469246E4
:104FA000DDE90E6B109CAAF10100216B01EB80087A
:104FB00028F0070808F0070008B9012000E00020E9
:104FC00050B900BF502080F31188BFF34F8FBFF35B
:104FD0006F8F00BF00BFFEE7002507E0795D04F199
:104FE00034004155785D00B902E06D1C102DF5D3F9
:104FF00000BF002143200155072E00D30626E6629C
:1050000066640020A064201D00F011FC04F118006B
:1050100000F00DFC2461C6F10700A061646200206D
:10502000E06484F8500049464046039A00F07CFA58
:105030002060BBF1000F01D0CBF80040BDE8FF9F1E
:1050400010B5002407E004EB84010F4A02EB810055
:1050500000F0E0FB641C072CF5D30C4800F0DAFBF1
:105060000B4800F0D7FB0B4800F0D4FB0A4800F0D7
:10507000D1FB0A4800F0CEFB044809490860044807
:105080000849086010BD000044230020D023002000
:10509000E4230020F82300200C24002020240020FA
:1050A000800000208400002010B50146164800E072
:1050B000006803688B42FBD30246436813448B426B
:1050C00004D143684C682344436001460A464B6858
:1050D00013440468A34211D10C4C03682468A34212
:1050E00008D04B680468646823444B6003681B68FD
:1050F0000B6005E0054B1B680B6001E003680B606B
:10510000884200D0016010BDB8000020C00000201F
:1051100070B5054600F0B4FBA86B08B9012400E0A7
:10512000002400F0D7FB204670BD70B5054600F0A6
:10513000A7FBA86BE96B884201D1012400E00024A1
:1051400000F0C8FB204670BD0A490968096809B922
:10515000012100E0002121B14FF0FF31064A11602A
:1051600006E004490968C968C868034A41681160D3
:105170007047000080000020AC0000200E4800684E
:10518000401C08B9012000E0002050B900BF5020A9
:1051900080F31188BFF34F8FBFF36F8F00BF00BF45
:1051A000FEE700BF502080F31188BFF34F8FBFF39D
:1051B0006F8F00BF00BFFEE7D000002070B504462F
:1051C00000F05EFB94F9455010E0606A08B90120D8
:1051D00000E0002038B904F1240001F0A1FB18B16F
:1051E00000F088FC00E003E0681E45B2002DECDC16
:1051F00000BFFF2084F8450000F06CFB00F040FB8E
:1052000094F9445010E0206908B9012000E0002022
:1052100048B904F1100001F083FB08B100F06AFC0A
:10522000681E45B200E001E0002DECDC00BFFF206D
:1052300084F8440000F04EFB70BD2DE9F05F044699
:105240000D4616464FF00209022D72D3E069A842BE
:105250006FD92078012804D0022857D0032811D113
:1052600079E02F4607EB5707A089B7FBF0F0A16A5A
:1052700000EB010A51462046FFF783FB8146B9F156
:10528000000F00D09DE038467F1CA189B0FBF1F2F1
:1052900001FB120104F1380001EB000805F00100E8
:1052A00028B1F1B298F8000061F31F1000E0304619
:1052B00088F800000120E070A089B7FBF0F0A16A37
:1052C00000EB010A51462046FFF75BFB8146B9F12E
:1052D000000F00D075E0A089B7FBF0F100FB117161
:1052E00004F1380001EB000805F0010010B1C6F32D
:1052F000071006E098F8000000F0F000C6F3032164
:10530000084388F800000120E0705AE0B4F80CA0CF
:105310000AEBDA704010B5FBF0F0A16A00EB010B6C
:1053200059462046FFF72DFB8146B9F1000F01D009
:1053300047E047E06800A189B0FBF1F201FB1201F0
:1053400004F1380001EB000AB1B2504600F06DF9EB
:105350000120E07035E0B4F80CA04FEAEA700AEBE7
:1053600090708010B5FBF0F0A16A00EB010B59467C
:105370002046FFF706FB8146B9F1000F00D020E080
:10538000A800A189B0FBF1F201FB120104F1380081
:1053900001EB000A5046FFF772FA66F31B0006465F
:1053A000A800A189B0FBF1F201FB120104F1380061
:1053B00001EB000A3146504600F02BF90120E07065
:1053C00000BF00BF4846BDE8F09F00002DE9F04156
:1053D00004464FF0000800F063FC4648006808B936
:1053E000FFF766FD44480068204000286BD1D4B127
:1053F000083404F00700B0B104F00700C0F1080061
:10540000044404F0070008B9012000E0002050B96E
:1054100000BF502080F31188BFF34F8FBFF36F8F11
:1054200000BF00BFFEE7002C4DD034480068844226
:1054300049D8334E3046056801E02E462D6868682D
:10544000A04202D228680028F7D12A480068854285
:1054500039D0306800F10808286830606868001B9F
:10546000102819D92F1907F0070008B9012000E00A
:10547000002050B900BF502080F31188BFF34F8F38
:10548000BFF36F8F00BF00BFFEE76868001B786046
:105490006C603846FFF708FE184968680968081A02
:1054A000164908600846006816490968884203D210
:1054B00012480068134908600F4968680968084382
:1054C00068600020286001F077FA08F0070008B94A
:1054D000012000E0002050B900BF502080F3118867
:1054E000BFF34F8FBFF36F8F00BF00BFFEE7404693
:1054F000BDE8F081C0000020CC000020C4000020E6
:10550000B8000020C80000200648006830B10549F6
:10551000096801F14800896C491C01600148006874
:10552000704700007C000020001F4FF08073036074
:10553000001F21F001030360001F054B03601438B6
:105540000260001F6FF00203036020387047000004
:105550007D5100082DE9F04781460E4617464FF071
:105560000008D9F80040022E02D3E069B04202D808
:105570000220BDE8F08767B100BF4FF0FF32394627
:105580002046FFF75AFE8046B8F1000F01D0404692
:10559000EFE700BF31464846FFF739F8054605B941
:1055A00022E0012D01D10220E3E7681C08B90120A7
:1055B000DFE7002231462046FFF73FFE8046B8F184
:1055C000000F01D04046D4E7D4E90610801E814286
:1055D00006D2A069401CA061207940F00100207132
:1055E0002E46E069B042D5D800BF0020C1E770B5B3
:1055F00006460C461546A9B204F11A0000F015F84B
:105600003078032804D1290C04F1140000F00DF8BF
:1056100070BD00F8011B090A00F8011B090A00F817
:10562000011B090A00F8011B704700F8011B091251
:1056300000F8011B7047000070B50446204600F0DA
:1056400043F80546002D38D1207803282ED1207943
:1056500001282BD1A289002104F13800FFF788F935
:105660004AF6552104F23620FFF7DFFF144904F112
:105670003800FFF7CEFF134904F50770FFF7C9FFA5
:1056800004F50870A169FFF7C4FF04F509706169AA
:10569000FFF7BFFF606A401C60636078012304F17C
:1056A0003801626BFEF744FA002020716078002216
:1056B0001146FEF703FA00B10125284670BD00002F
:1056C00052526141727241612DE9F0410446002756
:1056D000E078F8B1656B607801232A4604F138015F
:1056E000FEF726FA08B1012714E00020E070A06A56
:1056F000281A216A88420DD2A67809E0206A05445A
:10570000607801232A4604F13801FEF711FA761E6B
:10571000022EF3D23846BDE8F0810000FCF7FEFC13
:1057200000BF4FF480510448FBF77EFA4FF47A70C3
:10573000FFF741F9F5E70000000C024000BF4FF40D
:1057400080411A48FBF770FA1948007840BB0122E3
:1057500018491948FEF732FA1849087008460078C7
:10576000B0B90A2216491748FEF76AFAA8B9164BCB
:10577000322216491348FEF7E0FB10490870114821
:10578000FEF702FA012251030848FBF751FA04E040
:105790000122D1030548FBF74BFA012004490870A8
:1057A0004FF4FA70FFF707F9C9E70000000C024058
:1057B0000C0000205D000020200200204E00002090
:1057C0000E00002058120020500000201C00002075
:1057D00070B505460C4645B10C2C06D00B2C04D0F8
:1057E0000F2C02D02869FEF7FDFC70BD01460A6946
:1057F000D1E901309860D1E90103586050688842CE
:1058000001D188685060002008611068401E106057
:105810001068704700F1080141604FF0FF3181606E
:1058200000F10801C16001610021016070470021A1
:105830000161704710B502460B685C1C0CB9106919
:1058400007E002F1080000E04068446824689C42D8
:10585000FAD944684C604C68A160886041600A6174
:105860001468641C146010BD42684A6093688B60C1
:10587000936859609160086103685B1C036070471E
:1058800000BF502080F31188BFF34F8FBFF36F8F9D
:1058900000BF0E480068401C0C49086008460068BC
:1058A000012812D10A480068C0B208B9012000E0FE
:1058B000002050B900BF502080F31188BFF34F8FF4
:1058C000BFF36F8F00BF00BFFEE77047D00000201E
:1058D00004ED00E00D48006850B900BF502080F38F
:1058E0001188BFF34F8FBFF36F8F00BF00BFFEE77C
:1058F00006480068401E054908600846006820B94F
:10590000002080F3118800BF00BF7047D000002046
:1059100070B506463546002E3FD0083D2C461F493F
:1059200060680968084008B1012000E0002050B913
:1059300000BF502080F31188BFF34F8FBFF36F8FEC
:1059400000BF00BFFEE7206808B9012000E000208A
:1059500050B900BF502080F31188BFF34F8FBFF3C1
:105960006F8F00BF00BFFEE70C4960680968084000
:1059700098B1206888B909496068096888436060FF
:1059800000F08EF906496068096808440449086017
:105990002046FFF789FB01F00FF870BDCC00002016
:1059A000C4000020064800684FF47A71B0FBF1F0A3
:1059B000401E4FF0E0214861072008617047000059
:1059C0007000002070B5FAF743FC0446102C16D383
:1059D00004F1E02090F8F05315480078854201DB8F
:1059E000012000E0002050B900BF502080F3118852
:1059F000BFF34F8FBFF36F8F00BF00BFFEE70D48AF
:105A0000006800F4E0600C490968884201D8012070
:105A100000E0002050B900BF502080F31188BFF390
:105A20004F8FBFF36F8F00BF00BFFEE770BD000058
:105A3000D40000200CED00E0D800002070B5044632
:105A4000254655B900BF502080F31188BFF34F8F12
:105A5000BFF36F8F00BF00BFFEE7284600F004F8D9
:105A60002846FFF755FF70BD014600200EE0094AA9
:105A700002EBC00252688A4207D10022054B43F86C
:105A8000302003EBC0035A6002E0401C0828EED32C
:105A900000BF70470423002070B504460025D4B130
:105AA0001248006808B9012000E0002050B900BF8A
:105AB000502080F31188BFF34F8FBFF36F8F00BF6B
:105AC00000BFFEE700F0ECF800212046FFF7BCF82D
:105AD00000F072FF05463DB94FF080500449086060
